:100000000C94DC000C94F1000C94F1000C94F100C1
:100010000C94F1000C94F1000C94F1000C94F1009C
:100020000C94F1000C94F1000C94F1000C94F1008C
:100030000C94F1000C94F1000C94F1000C94F1007C
:100040000C94F1000C94F1000C94F1000C94F1006C
:100050000C94F1000C94F1000C94F1000C94F1005C
:100060000C94F1000C94F1006E616E00696E6600F4
:1000700000407A10F35A00A0724E18090010A5D45F
:10008000E80000E87648170000E40B54020000CABC
:100090009A3B000000E1F505000080969800000002
:1000A00040420F000000A086010000001027000061
:1000B0000000E803000000006400000000000A00E7
:1000C000000000000100000000002C76D888DC67EA
:1000D0004F0823DFC1DFAE59E1B1B796E5E3E45342
:1000E000C63AE651997696E8E6C28426EB898C9B5F
:1000F00062ED407C6FFCEFBC9C9F40F2BAA56FA5FF
:10010000F490055A2AF75C936B6CF9676DC11BFC80
:10011000E0E40D47FEF520E6B500D0ED902E03009B
:10012000943577050080841E080000204E0A0000E8
:1001300000C80C333333330F986E12831141EF8DA7
:100140002114893BE65516CFFEE6DB18D1844B38E7
:100150001BF77C1D901DA4BBE424203284725E2218
:100160008100C9F124ECA1E53D276364696E6F70DD
:10017000737578585B65666745464700616E006E2B
:1001800066696E69747900CDCCCC3D0AD7233C17E3
:10019000B7D13877CC2B329595E6241FB14F0A00A2
:1001A0000020410000C84200401C4620BCBE4CCA92
:1001B0001B0E5AAEC59D740011241FBECFEFD8E0B0
:1001C000DEBFCDBF11E0A0E0B1E0E6EBF7E102C099
:1001D00005900D92AA30B107D9F70E94F3000C9454
:1001E000D90B0C9400008091C100877E8093C100E0
:1001F0008FEF8AB920E014C0822F022E000C990BD9
:100200002F5F80509F4FFC01808180958BB9FFEF5D
:1002100033ED80E3F15030408040E1F700C0000052
:100220002A3051F721E080E090E0EBCFADE0B0E084
:10023000ECE1F1E00C94B0097C013B015A01FC01B6
:1002400017821682838181FF45C3F7012381F30161
:1002500023FD859123FF81913F01811509F441C060
:10026000853239F423FD959123FF91913F01953219
:1002700039F4B70190E00E94300B65015601E5CFDB
:1002800010E0912C812CF0E28F1608F03CC09B32DC
:1002900079F160F4903271F1933291F19E3209F06C
:1002A00048C086FC1EC0689486F806C09D3229F1BD
:1002B000903359F5689480F8F30123FD959123FF5D
:1002C00091913F019111DFCF082D097F903709F4FB
:1002D000C3C208F0B9C2983509F4C0C29F3609F408
:1002E000C2C2F701868197812D96E2E10C94CC0978
:1002F000689481F8689482F8DFCF689483F8DCCF43
:10030000689484F8D9CF87FC1CC080ED890F8A30AF
:1003100028F686FE06C03AE0139F800D1124182FA0
:10032000CBCF4AE0949E800D1124982E689485F8D6
:10033000C3CF9C3619F4689487F8BECF983609F479
:10034000BBCF8BEB890F833008F041C0689484F8F1
:10035000905E86FE16E0582D5F73852E953609F067
:100360003EC0689486F887FE44C0812F1C3308F095
:100370008BE322242394280E27E0F50161917191EB
:10038000819191916F01022DAE014F5F5F4F0E94ED
:10039000E7095C01498040FE03C00DE243FE09C04D
:1003A0000BE281FC06C082FA002700F90295000FDB
:1003B000007EF42DFC705F2EF115C1F101118DC28C
:1003C00024E0512C921608F49FC283E08BC28BE983
:1003D000890F833008F041C1E89484F8BACF96368B
:1003E00019F4689487F8BFCF111509F4BCCF1150E8
:1003F000BACF212F183010F027E017E0212CBDCF05
:1004000081108052B70190E00E94300B0F5F1F4FA8
:10041000F80184918111F4CF511409F42FCFB70161
:1004200080E290E00E94300B5A94F6CF87FE32C0F3
:10043000822D8A0D44FE04C09A81913309F48150C3
:1004400022242394181634F4282EF9E08F1710F084
:1004500088E0282E87FE46C0C501B7FE02C080E0B6
:1004600090E0019601110196111531F0212F30E035
:100470002F5F3F4F820F931F8915910514F4592C5C
:10048000581A882D8970811137C051102EC001155E
:10049000E1F134C086FCDECFE12FF0E01A151B0439
:1004A0003CF02CEFA2162FEFB20614F0689487F8F8
:1004B000329641E050E04C0F5D1FE40FF51F01C084
:1004C0001150111519F082918033D1F387FE0AC0C3
:1004D00022242394210EA116B10414F41A19BACFC0
:1004E00010E0B8CF85E090E0BDCFB70180E290E0AA
:1004F0000E94300B5A94C9CF011529F0B701802F03
:1005000090E00E94300B83FC02C051103EC087FE79
:1005100056C04501B7FE02C0812C912CC501881937
:100520009909E1E0F0E0EC0FFD1FE80FF91FFD87EE
:10053000EC879501221931091901012F10E011955D
:1005400001951109A814B9043CF12814390424F5C3
:10055000EC85FD858181F1E08F1A91082C853D8520
:100560002F5F3F4F3D872C8780169106BCF0B70167
:1005700090E00E94300B3FEF8316930619F7B70106
:100580008EE290E00E94300BDDCFB70180E390E077
:100590000E94300B5A94B9CF80E3DDCFA814B90480
:1005A00039F49A81963348F4953311F444FE05C02A
:1005B000B70190E00E94300B2FCF81E3F9CF8A8101
:1005C000813311F0E89444F8B70190E00E94300BB9
:1005D000111125C085E490E084FC02C085E690E01E
:1005E000B7010E94300BB7FC05C0A114B10471F52E
:1005F00044FE2CC0B194A194B1088DE2B70190E003
:100600000E94300B80E35AE0A516B1040CF5B70147
:1006100090E00E94300BB701C501C096CBCFB70167
:100620008EE290E00E94300B1E5F02E0802F0F5F91
:10063000E1E0F0E0EC0FFD1FE80FF11D8081B70154
:1006400090E00E94300B0113F1CFC4CF8BE2D6CFE4
:100650008F5F4AE0A41AB108D6CF933609F482C05E
:10066000933709F495C0933509F4A1C0943619F075
:10067000993609F0CEC0F50187FEC3C06191719132
:10068000819191916F01F82DFF768F2E97FF09C010
:1006900090958095709561957F4F8F4F9F4F68948F
:1006A00087F82AE030E0AE014F5F5F4F5A010E94A9
:1006B000780BB82EBA185B2C082D86FE0AC00E7F68
:1006C000B11638F484FE04C082FC02C0082D0E7EF0
:1006D000512E04FFD8C0FE01EB0DF11D8081803347
:1006E00009F0CAC0097E03FD0EC000FFDBC01B2D50
:1006F000591418F4190D1519592C892D85199514AB
:1007000008F480E0580E591408F0CEC09518592C02
:1007100004FFCCC0B70180E390E00E94300B02FFE1
:1007200009C088E590E001FD02C088E790E0B701CC
:100730000E94300BB11608F4C6C0BA940B2D10E01D
:100740000F5F1F4FCE0101965C01080F191FF801C2
:1007500082918F01B70190E00E94300BA016B10684
:10076000B1F75ACE650182E0C80ED11CF501808137
:10077000898301E010E09E012F5F3F4F5901E8940B
:1007800087F883FC03C00915110510F1592C35C0F9
:10079000F501A190B1906F01612F70E086FC02C05D
:1007A0006FEF7FEFC5010E94E60A8C01E8CFF501EB
:1007B000A190B1906F01612F70E086FC02C06FEFD5
:1007C0007FEFC5010E94DB0A8C01689487F8D9CFBE
:1007D000B70180E290E00E94300B9A94D4CFF501EB
:1007E00087FC859187FE81915F01B70190E00E94AF
:1007F000300B51105A94015011090115110579F768
:100800000BCE619171916F01072E000C880B990B33
:100810003ACF082D0F7E2AE030E0953709F054CD0D
:10082000F50107FF23C061917191819191916F0151
:10083000AE014F5F5F4F5A010E94780BB82EBA1875
:10084000802EE89487F837CF983709F04ACD04FD19
:10085000046020E130E0E4CF0061F9CF84FC066061
:1008600020E132E0DDCF28E030E0DACF6191719114
:100870006F0180E090E0DCCF02FD02C0539433CFE3
:100880005394539430CF802F8678811509F42BCF61
:10089000F5CFB70180E290E00E94300BA394A91439
:1008A000C0F32BCFA52CFBCF512C32CF802F8678D5
:1008B000811509F43FCF80E201FD8BE207FD8DE257
:1008C000B70190E035CFB70180E390E00E94300B94
:1008D000115030CF8FEF9FEF07CDF5E0512C9F16D1
:1008E00070F084E0592C581A83FC07C0B70180E2ED
:1008F00090E00E94300B5A94C9F7011529F0B70116
:10090000802F90E00E94300B08E610E043FC02C00C
:100910000CE610E0282D2071822E7ACDFC01CA0150
:10092000DB0120FD08C023FD05C022FF02C0B38308
:10093000A283918380830895582F392FCB01A52F4F
:10094000B32F33E044FD14C034E046FD11C0AC01C8
:10095000BD01DA01FB01AA0FBB1FEE1FFF1F1094A0
:10096000D1F74A0F5B1F6E1F7F1FDB01CA0131E009
:10097000880F991FAA1FBB1F3A95D1F7BC01CD0163
:10098000620F711D811D911D08950F931F93CF93C9
:10099000DF938C01C8010E94F10AEC0197FD08C0A9
:1009A0000E94BF0A892BB1F7B801CE010E94600BEB
:1009B000CE01DF91CF911F910F910895A0E0B0E09B
:1009C000E4EEF4E00C94B609B82E892E8B01942E37
:1009D000A52ED22F0E94F10AFC019927EB3219F0C3
:1009E0008D9789F4D0680150104031F480E0CDB784
:1009F000DEB7ECE00C94D2098B2D982D0E94F10A01
:100A0000FC0197FDF3CFCD2FCD7F8D2F807381110A
:100A100032C0E03381F5680181E0C81AD10839F0AD
:100A20008B2D982D0E94F10AFC0197FF16C0C12C56
:100A3000D12C7601C7FF08C0F094E094D094C09404
:100A4000C11CD11CE11CF11C2C2FB701A601892D62
:100A50009A2D0E948E0481E0CACF8F7D883529F5BA
:100A6000C2640250104019F38B2D982D0E94F10A98
:100A7000FC0197FDDCCFC12CD12C760120ED2E0F8F
:100A80002830D8F0C4FD09C02A30B8F0C6FF05C030
:100A90002F7D8FEE820F863078F06B2D782DCF0171
:100AA0000E94600BC1FDC6CFA1CFD6FF03C0C260BC
:100AB0008601E1CFC261FCCF27504C2FC701B601A0
:100AC0000E949C046B017C01C2600150104009F43B
:100AD000B1CF8B2D982D0E94F10AFC0197FFCECF4C
:100AE000E1CF4F925F927F928F929F92AF92BF928F
:100AF000CF92DF92EF92FF920F931F93CF93DF93EA
:100B0000CDB7DEB7A0970FB6F894DEBF0FBECDBF4E
:100B10005C016B017A01CE0101964C0180E2F40187
:100B200011928A95E9F7F5017380890140E050E060
:100B3000B0E020E0A0E061E070E0F80173FC959186
:100B400073FE9191892F8F01911119C000E010E07F
:100B5000C801A0960FB6F894DEBF0FBECDBFDF91DF
:100B6000CF911F910F91FF90EF90DF90CF90BF90AA
:100B7000AF909F908F907F905F904F9008959E359B
:100B800019F44115510539F1A4171506F4F49D35F2
:100B900051F19D32D1F4211511F1E82FE695E6953A
:100BA000E695E80DF92DF11D282F27702B0102C0C5
:100BB000440C551C2A95E2F79081942990838B1759
:100BC00081F08B1730F48F5FE8CF2111E6CFB92F7A
:100BD000E4CF8150E2CFA1E04F5F5F4FAECF21E085
:100BE000FBCF20E0F9CF211519F08E8180628E8332
:100BF000A11561F0F4019E012F5D3F4F8081DF015F
:100C0000319680958C93E217F307C1F7772473949C
:100C1000C5010E94F10A97FD16C0E82FE695E695FA
:100C2000E695E80DF92DF11D208130E0AC0147700B
:100C3000552702C0359527954A95E2F720FD06C055
:100C4000B5010E94600B711471F080CFE114F104C2
:100C500019F0F70181937F0181E0C81AD108712C46
:100C6000C114D104A9F6E114F10409F471CFF7011C
:100C700010826ECFA6E0B0E0E0E4F6E00C94B1099B
:100C8000C82E392E8B014A010E94F10A8D839E8362
:100C90008D819E8199272D812B3231F030E8B32E42
:100CA0008D9719F0B12C13C0B12C0150104029F4CC
:100CB00080E02696E1E10C94CD098C2D932D0E94C5
:100CC000F10A8D839E838D819E8197FDF1CF8D8169
:100CD0009E810E94C80A8936910509F4D9C08E36D2
:100CE000910509F4F0C0412C512C3201E12CF12C7A
:100CF0002D812053DB2C2A3008F005C16894D1F8EF
:100D00008B2D8870B2FEE6C0811103C09FEFE91AF7
:100D1000F90A0150104051F08C2D932D0E94F10AD8
:100D20008D839E838D819E8197FFD2C0D1FEC0CFDF
:100D30008D818F7D853409F054C0580191E0A91A46
:100D4000B10809F4B5CF8C2D932D0E94F10A8D8343
:100D50009E83ED81FE81F7FDABCFCF019927EB326A
:100D600021F08D9771F46894D4F85801F2E0AF1A2D
:100D7000B10809F49DCF8C2D932D0E94F10A8D832B
:100D80009E838D819E81C0970A9708F091CF00E0E5
:100D900010E0B801110F880B990B2D81205340E210
:100DA0000E949C0469837A838B839C8309811A81C6
:100DB00021E0A21AB10859F08C2D932D0E94F10A5E
:100DC0008D839E838D819E81C0970A9710F3D4FEF8
:100DD00005C009811A81119501951109E00EF11ED6
:100DE0008501012B41F08D819E8197FD04C06C2D02
:100DF000732D0E94600BC301B2010E94B508F7FE7B
:100E00008AC0F194E194F108EBE9F1E0FA83E98317
:100E1000A980BA8038E1A31AB10800E210E0E981A4
:100E2000FA81E016F10608F07BC03497FA83E98373
:100E300016950795EA15FB0591F722C0E981FA811D
:100E4000E017F10781F08C2D932D0E94F10A7C01AF
:100E500097FD09C00E94C80AD81611F16C2D732D98
:100E6000C7010E94600B29813A812258314009F064
:100E70001FCF80E090E0A0E8BFE7BC01CD01DB2CF4
:100E8000D7FC90588114910409F053C081E011CF30
:100E9000EFE7F1E0FA83E98389819A81080F191F4E
:100EA000E981FA813196FA83E9833197D490D110A0
:100EB000C5CF29813A812F573140D9F680E090E0A3
:100EC000A0ECBFE7DACF2CE731E03A832983E4CF07
:100ED000BD2C0ECF811519F0E1E0EE1AF10840E2C9
:100EE000C301B2010E949C042B013C01F8E94F169A
:100EF000F9E95F066F06F9E17F0608F40ACF2B2DAA
:100F00002660D22E06CF2E3F09F010CFB3FC0ECFB5
:100F10006894D3F8FECE23EB31E03A83298378CF6F
:100F200025913591459154910E94F208E01AF10AF9
:100F300076CFF4016083718382839383A7CFA0E08F
:100F4000B0E0E5EAF7E00C94B3095C01EB01642E34
:100F5000552EFC0117821682712CF501F380FE01DB
:100F6000F3FC0591F3FE0191EF010115F1F0802FE3
:100F700090E00E94BF0A892B21F0C5010E94C504A0
:100F8000ECCF053241F4FE01F3FC1591F3FE119113
:100F9000EF01153269F4C5010E94F10A97FD91C075
:100FA0000817D9F2B5010E94600B872D90E08DC023
:100FB00000E01A3231F4F3FC1591F3FE1191EF01C8
:100FC00001E0C12CD12C20ED210F2A3050F101FF7E
:100FD00037C0C114D10449F31836B1F11C3609F4F5
:100FE0003DC0111511F3612F70E08AE691E00E9477
:100FF000D00A892BD1F2E12CF12C00FD06C0E62DA0
:10100000F52DE190F1906E2E5F2E1E3679F5F501EB
:101010004681578160E070E0202FC7010E948E0456
:101020009CCF0260B60180E090E040E20E949C0408
:101030006B01FE01F3FC1591F3FE1191EF01C3CF9B
:10104000CC24CA94DC2CC8CFFE01F3FC1591F3FE2E
:101050001191EF01183609F0C4CF08600460FE0159
:10106000F3FC1591F3FE1191EF01BBCF1336C1F4E0
:1010700001FD03C0CC24C394D12CC5010E94F10A08
:1010800097FD1FC0E114F10419F0F70181937F016E
:10109000F1E0CF1AD10889F700FD5FCF73945DCFDF
:1010A0001B35C1F49E01A701B601C5010E9471055F
:1010B000EC01892B89F7F50183818073811509F48F
:1010C00074CF8FEF9FEF711070CFCDB7DEB7EFE029
:1010D0000C94CF09C5010E94C50497FDF2CF1F36BD
:1010E00009F441C068F4193689F020F4183569F024
:1010F0001436B9F1A701B601C5010E943A060CC029
:101100001337D1F058F41037A9F70064202FA70146
:10111000B601C5010E94DE048115CCCF153709F157
:101120001837F2CFE114F10419F0F70181927F0131
:10113000F1E0CF1AD10871F0C5010E94F10A4C010B
:1011400097FD08C00E94BF0A892B61F3B501C40155
:101150000E94600BE114F10409F49ECFF7011082A4
:101160009BCF0062D3CF0061D1CFE89409C097FB39
:101170003EF490958095709561957F4F8F4F9F4F6E
:101180009923A9F0F92F96E9BB279395F6958795B2
:1011900077956795B795F111F8CFFAF4BB0F11F475
:1011A00060FF1BC06F5F7F4F8F4F9F4F16C088231C
:1011B00011F096E911C0772321F09EE8872F762F52
:1011C00005C0662371F096E8862F70E060E02AF093
:1011D0009A95660F771F881FDAF7880F969587957F
:1011E00097F908950E9405090C9476090E946809F0
:1011F00038F00E946F0920F0952311F00C945F09DC
:101200000C94650911240C94AA090E94870970F3B3
:10121000959FC1F3950F50E0551F629FF001729F9B
:10122000BB27F00DB11D639FAA27F00DB11DAA1FAA
:10123000649F6627B00DA11D661F829F2227B00DF7
:10124000A11D621F739FB00DA11D621F839FA00D82
:10125000611D221F749F3327A00D611D231F849FD2
:10126000600D211D822F762F6A2F11249F57504029
:101270009AF0F1F088234AF0EE0FFF1FBB1F661FA4
:10128000771F881F91505040A9F79E3F510580F06D
:101290000C945F090C94AA095F3FE4F3983ED4F3E1
:1012A000869577956795B795F795E7959F5FC1F711
:1012B000FE2B880F911D9695879597F9089597F9BC
:1012C0009F6780E870E060E008959FEF80EC0895EC
:1012D00000240A9416161706180609060895002415
:1012E0000A9412161306140605060895092E03948F
:1012F000000C11F4882352F0BB0F40F4BF2B11F403
:1013000060FF04C06F5F7F4F8F4F9F4F089557FD61
:101310009058440F551F59F05F3F71F04795880F63
:1013200097FB991F61F09F3F79F0879508951216FA
:1013300013061406551FF2CF4695F1DF08C01616A6
:1013400017061806991FF1CF869571056105089457
:101350000895E894BB2766277727CB0197F908956E
:101360002F923F924F925F926F927F928F929F92B5
:10137000AF92BF92CF92DF92EF92FF920F931F93A3
:10138000CF93DF93CDB7DEB7CA1BDB0B0FB6F89454
:10139000DEBF0FBECDBF09942A88398848885F8494
:1013A0006E847D848C849B84AA84B984C884DF8005
:1013B000EE80FD800C811B81AA81B981CE0FD11DE9
:1013C0000FB6F894DEBF0FBECDBFED0108952830F3
:1013D00008F027E03327DA01990F311D87FD91606E
:1013E00000966105710539F432602E5F3D9330E35C
:1013F0002A95E1F708959F3F30F080387105610527
:1014000009F03C5F3C5F3D93913008F08068911D8E
:10141000DF93CF931F930F93FF92EF92192F987F33
:101420009695E92F96959695E90FFF27E653FF4F7E
:1014300099273327EE24FF24A701E701059008949C
:10144000079428F4360FE71EF81E491F511D660F3A
:10145000771F881F991F0694A1F70590079428F419
:10146000E70EF81E491F561FC11D770F881F991FD1
:10147000661F0694A1F70590079428F4F80E491FFB
:10148000561FC71FD11D880F991F661F771F06940F
:10149000A1F70590079420F4490F561FC71FD81FC6
:1014A000990F661F771F881F0694A9F784911095DE
:1014B000177041F0D695C79557954795F794E794DF
:1014C0001A95C1F7E0E7F0E0689415901591359111
:1014D0006591959105907FE27395E118F10A430BB0
:1014E000560BC90BD009C0F7E10CF11E431F561F64
:1014F000C91FD01D7EF4703311F48A95E6CFE894AD
:10150000015030F0080F0AF40027021708F4202FCA
:101510002395022F7A3328F079E37D932A95E9F712
:1015200010C07D932A9589F606949795679537950F
:1015300017951794E118F10A430B560BC90BD00904
:1015400098F023957E9173957A3308F070E37C933D
:101550002013B8F77E9170617D9330F0839571E32D
:101560007D9370E32A95E1F71124EF90FF900F919E
:101570001F91CF91DF91992787FD90950895911143
:101580000C94D60B803219F089508550C8F7089515
:101590009111089581548A5108F4805E855A089506
:1015A000FC010590061621F00020D9F7C00108952E
:1015B0003197CF010895FC010590615070400110F2
:1015C000D8F7809590958E0F9F1F0895FC0161506C
:1015D000704001900110D8F7809590958E0F9F1F55
:1015E0000895CF93DF93EC018B8180FF1BC086FFB2
:1015F0000CC08F7B8B838E819F8101969F838E830E
:101600008A8190E0DF91CF91089582FF19C0E8812F
:10161000F9819081292F092E000C330B911105C0FF
:1016200080628B838FEF9FEFEDCF3196F983E88354
:101630008E819F8101969F838E83C9019927E2CF76
:10164000EA85FB85CE0109959C0197FFF1CF8B813F
:101650002F3F3F4F19F490E1892BE3CF90E2FCCF6D
:101660000F931F93CF93DF93182F092FEB018B81DB
:1016700081FD09C01FEF0FEF812F902FDF91CF91D8
:101680001F910F91089582FF14C02E813F818C819C
:101690009D81281739073CF4E881F981CF01019633
:1016A0009983888310838E819F8101969F838E8387
:1016B000E3CFE885F985812F0995892BA1F3DACF4E
:1016C000FB01238120FF11C026FD0FC08F3F98072B
:1016D00071F082832F7D20642383268137812150FE
:1016E000310937832683992708958FEF9FEF089557
:1016F000FA01AA27283051F1203181F1E8946F9343
:101700006E7F6E5F7F4F8F4F9F4FAF4FB1E03ED0E8
:10171000B4E03CD0670F781F891F9A1FA11D680F86
:10172000791F8A1F911DA11D6A0F711D811D911DB9
:10173000A11D20D009F468943F912AE0269F11242E
:101740003019305D3193DEF6CF010895462F477092
:10175000405D4193B3E00FD0C9F7F6CF462F4F70ED
:10176000405D4A3318F0495D31FD4052419302D04B
:10177000A9F7EACFB4E0A6959795879577956795F1
:10178000BA95C9F700976105710508959B01AC01F1
:101790000A2E06945795479537952795BA95C9F718
:1017A000620F731F841F951FA01D08959927882716
:0617B0000895F894FFCF3C
:0A17B600BF86DBCFE6EDFDA7FFEFD5
:00000001FF
