:1000000010C01FC03CC01DC01CC01BC01AC019C0FE
:1000100018C017C016C015C014C013C012C011C03C
:1000200010C011241FBECFE5D2E0DEBFCDBF20E05F
:10003000A0E6B0E001C01D92A236B207E1F7FFD002
:1000400020C1DECF8AB380638ABB80E18DB9089579
:100050008FB980E48EB9769904C08BE18DB9769B17
:10006000FDCF8FB1089585B7816085BF8BB7806163
:100070008BBF979A0895D798DF9ABA9A08951F92DE
:100080000F920FB60F9211248F93CF9909C081E080
:10009000809360008F910F900FBE0F901F90189566
:1000A000109260008F910F900FBE0F901F901895C7
:1000B000DE9ADC9AD49AD69A8FEF8FB98AE28DB9FC
:1000C00080EF8EB9089580916100089521E020931A
:1000D0006100FC01208120FD03C023E0209361002A
:1000E000DC9ACC9BFECF00C00000DE9800C0000070
:1000F000DC98DE9AFC0140EF8BE22FEF3EEF90910F
:100100006100937009F43FC0DC9890819FB94EB9AB
:1001100092E09A95F1F78DB9CC9BFECF00C000001C
:100120008DB9769BF5CF92E09A95F1F79FB12FB9F3
:10013000D69AD6983EB992E09A95F1F78DB9CC9BB4
:10014000FECF00C000008DB9769BF5CF92E09A9566
:10015000F1F79FB12FB9D69A90FD41C090916100FF
:100160009E7F90936100615031966111C8CFDE98F7
:10017000DC9ACC9BFECF00C00000DE9AE2E0EA955C
:10018000F1F781E00895D6984EB992E09A95F1F78B
:100190008DB9CC9BFECF00C000008DB9769BF5CF0A
:1001A00092E09A95F1F79FB12FB9D69A908361307A
:1001B000A1F01FB83EB992E09A95F1F78DB9CC9BAA
:1001C000FECF00C000008DB9769BF5CF92E09A95E6
:1001D000F1F79FB12FB9D69AC6CF2FB9EBCF909137
:1001E0006100892F817090FF05C086E080936100D7
:1001F00080E0089595E09093610008958EB98BE2B8
:1002000092E09A95F1F78DB9CC9BFECF00C000002B
:100210008DB9769BF5CF82E08A95F1F78FB19FEF8C
:100220009FB9D69A0895DE98DC9ACC9BFECF00C089
:100230000000DE9A82E08A95F1F781E0089585B7A3
:10024000816085BF8BB780618BBF979A78948AB3A2
:1002500080638ABB80E18DB9D798DF9ABA9A20E48F
:100260008BE1909160009FB92EB9769903C08DB94A
:10027000769BFDCF9FB1992311F0C29AF2CFC2981D
:06028000F0CFF894FFCF5F
:00000001FF
