:1000000010C01FC01EC01DC01CC01BC01AC019C01C
:1000100018C017C016C015C014C013C012C011C03C
:1000200010C011241FBECFE5D2E0DEBFCDBF20E05F
:10003000A0E6B0E001C01D92A136B207E1F7C9D039
:10004000E5C0DECFDE9ADC9AD49AD69A8FEF8FB9CC
:100050008AE28DB980EF8EB908958091600008958D
:1000600021E020936000FC01208120FD03C023E0FB
:1000700020936000DC9ACC9BFECF00C00000DE988D
:1000800000C00000DC98DE9AFC0140EF8BE22FEF0D
:100090003EEF90916000937009F43FC0DC9890812E
:1000A0009FB94EB992E09A95F1F78DB9CC9BFECFEE
:1000B00000C000008DB9769BF5CF92E09A95F1F7DC
:1000C0009FB12FB9D69AD6983EB992E09A95F1F79A
:1000D0008DB9CC9BFECF00C000008DB9769BF5CFCB
:1000E00092E09A95F1F79FB12FB9D69A90FD41C051
:1000F000909160009E7F90936000615031966111F5
:10010000C8CFDE98DC9ACC9BFECF00C00000DE9A00
:10011000E2E0EA95F1F781E00895D6984EB992E0D1
:100120009A95F1F78DB9CC9BFECF00C000008DB938
:10013000769BF5CF92E09A95F1F79FB12FB9D69AB9
:1001400090836130A1F01FB83EB992E09A95F1F723
:100150008DB9CC9BFECF00C000008DB9769BF5CF4A
:1001600092E09A95F1F79FB12FB9D69AC6CF2FB9E1
:10017000EBCF90916000892F817090FF05C086E0E1
:100180008093600080E0089595E09093600008956A
:100190008EB98BE292E09A95F1F78DB9CC9BFECFA8
:1001A00000C000008DB9769BF5CF82E08A95F1F70B
:1001B0008FB19FEF9FB9D69A0895DE98DC9ACC9BB9
:1001C000FECF00C00000DE9A82E08A95F1F781E060
:1001D0000895CF93DF9300D000D0CDB7DEB732DFE4
:1001E00010E08EEFF82E00E1F9820A831B8363E0B2
:1001F000CE01019635DF1F5F2FE38DE093E02150A4
:1002000080409040E1F700C00000EECFF894FFCFAF
:00000001FF
