S00C00007A6164342E73726563A5
S11300000C94DC000C94F9000C94F9000C94F900A5
S11300100C94F9000C94F9000C94F9000C94F90078
S11300200C94F9000C94F9000C94F9000C94F90068
S11300300C94F9000C94F9000C94F9000C94F90058
S11300400C94F9000C94F9000C94F9000C94F90048
S11300500C94F9000C94F9000C94F9000C94F90038
S11300600C94F9000C94F9006E616E00696E6600E0
S113007000407A10F35A00A0724E18090010A5D45B
S1130080E80000E87648170000E40B54020000CAB8
S11300909A3B000000E1F5050000809698000000FE
S11300A040420F000000A08601000000102700005D
S11300B00000E803000000006400000000000A00E3
S11300C0000000000100000000002C76D888DC67E6
S11300D04F0823DFC1DFAE59E1B1B796E5E3E4533E
S11300E0C63AE651997696E8E6C28426EB898C9B5B
S11300F062ED407C6FFCEFBC9C9F40F2BAA56FA5FB
S1130100F490055A2AF75C936B6CF9676DC11BFC7C
S1130110E0E40D47FEF520E6B500D0ED902E030097
S1130120943577050080841E080000204E0A0000E4
S113013000C80C333333330F986E12831141EF8DA3
S11301402114893BE65516CFFEE6DB18D1844B38E3
S11301501BF77C1D901DA4BBE424203284725E2214
S11301608100C9F124ECA1E53D276364696E6F70D9
S1130170737578585B65666745464700616E006E27
S113018066696E69747900CDCCCC3D0AD7233C17DF
S1130190B7D13877CC2B329595E6241FB14F0A009E
S11301A00020410000C84200401C4620BCBE4CCA8E
S11301B01B0E5AAEC59D740011241FBECFEFD8E0AC
S11301C0DEBFCDBF12E0A0E0B1E0E2E7F4E202C09E
S11301D005900D92AA34B107D9F722E0AAE4B2E05F
S11301E001C01D92AE35B207E1F70E941B010C94C9
S11301F037120C9400009091C00095FFFCCF8093BF
S1130200C60080E090E008958091C00087FFFCCF95
S11302108091C60090E0089587E690E09093C50031
S11302208093C4001092C00088E18093C10086E0EE
S11302308093C2000895CDB7DEB7CB54D1090FB671
S1130240F894DEBF0FBECDBF87E690E09093C50063
S11302508093C4001092C00088E18093C10086E0BE
S11302608093C2008AE492E02BEF30E03093530293
S11302702093520224E031E030935502209354023B
S113028023E020934D02109257021092560290934D
S11302905D0280935C0290935B0280935A02909378
S11302A059028093580280E091E09F938F930E94BB
S11302B092110F900F908E010A5D1F4F1CAF0BAF70
S11302C0CE0185969AAF89AFFE01B396F8AFEFAB36
S11302D0055011091EAB0DAB08979CAB8BAB3A973D
S11302E0FAABE9AB0C50110918AB0FA70C979EA7FA
S11302F08DA73C97FCA7EBA70C5011091AA709A7D7
S11303000C9798A78FA3B7E52B2EB1E03B2E1AE5E7
S1130310812E11E0912E9CAD9F93EBADEF938FE076
S1130320E82E81E0F82EFF92EF920E94A8111AADF8
S11303301F9329AD2F93FF92EF920E94A8118EA1D3
S1130340282F082E000C330B3F938F93E4E1F1E048
S1130350FF93EF930E9492118DA1282F082E000C79
S1130360330B3F938F9306E211E01F930F930E9488
S113037092118EA19DA1890F282F082E000C330BFA
S11303803F938F9388E391E09F938F930E94921100
S11303908EA19DA1899F802D1124282F082E000C49
S11303A0330B3F938F9392E4E92E91E0F92EFF9261
S11303B0EF920E9492118EA1082E000C990B6DA150
S11303C0062E000C770B0E94280E062E000C770BCD
S11303D07F936F938DE491E09F938F930E9492118A
S11303E0F8ADFF93EFA8EF923F922F920E94A811CD
S11303F00FB6F894DEBF0FBECDBF1EA91F932DA963
S11304002F933F922F920E94A8118CA18F938BA1BE
S11304108F9384E191E09F938F930E9492118AA11C
S11304208F9389A18F9326E2E22E21E0F22EFF9290
S1130430EF920E9492118BA19CA129A13AA1820F53
S1130440931F9F938F9388E391E09F938F930E94D0
S113045092114BA15CA129A13AA1429FC001439FE3
S1130460900D529F900D11249F938F9332E4E32EAD
S113047031E0F32EFF92EF920E9492118BA19CA186
S113048069A17AA10E94280E7F936F938DE491E075
S11304909F938F930E949211FCA9FF93EBA8EF9274
S11304A09F928F920E94A811FAA8FF9209A90F9314
S11304B09F928F920E94A8110FB6F894DEBF0FBED0
S11304C0CDBF88A18F938F8D8F938E8D8F938D8DBC
S11304D08F93EEE5F1E0FF93EF930E9492118C8DE0
S11304E08F938B8D8F938A8D8F93898D8F9301E753
S11304F011E01F930F930E9492118D8D9E8DAF8DED
S1130500B8A1498D5A8D6B8D7C8D840F951FA61FC4
S1130510B71FBF93AF939F938F9384E891E09F930A
S11305208F930E9492112D8D3E8D4F8D58A1698D10
S11305307A8D8B8D9C8D0E94180E9F938F937F9341
S11305406F934FE8E42E41E0F42EFF92EF920E9465
S113055092116D8D7E8D8F8D98A1298D3A8D4B8D45
S11305605C8D0E943C0E3F932F938BE991E09F9307
S11305708F930E949211F8A9FF93EFA4EF929F9298
S11305808F920E94A8110FB6F894DEBF0FBECDBFA4
S11305901EA51F932DA52F939F928F920E94A811A1
S11305A08CA58F939BA59F939F928F920E94A811D5
S11305B0EAA5EF93F9A5FF939F928F920E94A81149
S11305C08C898F938B898F938A898F9389898F9351
S11305D0888D8F938F898F938E898F938D898F9335
S11305E086EA91E09F938F930E9492118C858F935A
S11305F08B858F938A858F9389858F9388898F9331
S11306008F858F938E858F938D858F938DEB91E05E
S11306109F938F930E9492118D899E89AF89B88D83
S11306202C013D01770C4408542C32019C01AD018E
S1130630642D742D842D942D0FE10E94950F49880B
S11306405A886B887C8883017201110FEE08FE2C96
S113065087012196ECAEFDAE0EAF1FAF219752017C
S11306606301EDACFE2C0E2D1E2D0E94CB0F2DAF81
S113067022963FAF229723964FAF239724965FAFDE
S1130680249725966FAF259726967FAF26972796B2
S11306908FAF279728969FAF28978D859E85AF8526
S11306A0B8892C013D01770C4408542C32019C017B
S11306B0AD01642D742D842D942D0FE10E94950FAE
S11306C0E984FA840B851C8527013801770C4408DA
S11306D0542C320157016801E42CF42C042D142D00
S11306E00E94CB0F29962FAF29972A963FAF2A97BE
S11306F02B964FAF2B972C965FAF2C972B013C0179
S11307002DAD22963FAD229723964FAD2397249685
S11307105FAD249725966FAD259726967FAD2697D6
S113072027968FAD279728969FAD28972996AFAC2B
S113073029972A96BFAC2A972B96CFAC2B972C9649
S1130740DFAC2C97720183010E94CB0F0FB6F89493
S1130750DEBF0FBECDBF5F934F933F932F9300E255
S11307600E94AE0F5F934F933F932F9384ED91E0DC
S11307709F938F930E9492112996AFAC29972A9642
S1130780BFAC2A972B96CFAC2B972C96DFAC2C972B
S113079083012DAD22963FAD229723964FAD23972B
S11307A024965FAD249725966FAD259726967FAD49
S11307B0269727968FAD279728969FAD28970E9456
S11307C0660E5F934F933F932F9300E20E94AE0F08
S11307D05F934F933F932F9383EE91E09F938F9377
S11307E00E9492112996AFAC29972A96BFAC2A97FA
S11307F02B96CFAC2B972C96DFAC2C97062D2DADDA
S113080022963FAD229723964FAD239724965FAD52
S1130810249725966FAD259726967FAD2697279624
S11308208FAD279728969FAD28970E94C00E5F939F
S11308304F933F932F9300E20E94AE0F5F934F9329
S11308403F932F9383EF91E09F938F930E94921194
S113085018A51F932FA12F9302E012E01F930F936B
S11308600E94A8110FB6F894DEBF0FBECDBFE1E021
S1130870F0E0EC0FFD1FFF93EF931F930F930E9483
S1130880A81188858F938F818F938E818F938D810B
S11308908F9385E092E09F938F930E9492118C81B5
S11308A08F938B818F938A818F9389818F9388E132
S11308B092E09F938F930E94921129813A814B81F8
S11308C05C816D817E818F8198850E943F0C9F930E
S11308D08F937F936F938BE292E09F938F930E9409
S11308E0921129813A814B815C816D817E818F8156
S11308F098850E94AB0D9F938F937F936F9385E3AD
S113090092E09F938F930E94921129813A814B81A7
S11309105C816D817E818F8198850E94AB0C9F9351
S11309208F937F936F9380E492E09F938F930E94C1
S113093092110FB6F894DEBF0FBECDBFECCCADE084
S1130940B0E0E5EAF4E00C945E0F7C013B015A014F
S1130950FC0117821682838181FF45C3F70123813D
S1130960F30123FD859123FF81913F01811509F452
S113097041C0853239F423FD959123FF91913F01C4
S1130980953239F4B70190E00E9462116501560175
S1130990E5CF10E0912C812CF0E28F1608F03CC0DA
S11309A09B3279F160F4903271F1933291F19E327D
S11309B009F048C086FC1EC0689486F806C09D32C3
S11309C029F1903359F5689480F8F30123FD95914A
S11309D023FF91913F019111DFCF082D097F9037BB
S11309E009F4C3C208F0B9C2983509F4C0C29F36ED
S11309F009F4C2C2F701868197812D96E2E10C9435
S1130A007A0F689481F8689482F8DFCF689483F849
S1130A10DCCF689484F8D9CF87FC1CC080ED890FA3
S1130A208A3028F686FE06C03AE0139F800D112412
S1130A30182FCBCF4AE0949E800D1124982E6894F1
S1130A4085F8C3CF9C3619F4689487F8BECF9836DE
S1130A5009F4BBCF8BEB890F833008F041C0689455
S1130A6084F8905E86FE16E0582D5F73852E9536C9
S1130A7009F03EC0689486F887FE44C0812F1C3379
S1130A8008F08BE322242394280E27E0F5016191DA
S1130A907191819191916F01022DAE014F5F5F4F72
S1130AA00E9419105C01498040FE03C00DE243FE20
S1130AB009C00BE281FC06C082FA002700F9029506
S1130AC0000F007EF42DFC705F2EF115C1F10111B1
S1130AD08DC224E0512C921608F49FC283E08BC28D
S1130AE08BE9890F833008F041C1E89484F8BACFC8
S1130AF0963619F4689487F8BFCF111509F4BCCF62
S1130B001150BACF212F183010F027E017E0212C14
S1130B10BDCF81108052B70190E00E9462110F5F37
S1130B201F4FF80184918111F4CF511409F42FCF90
S1130B30B70180E290E00E9462115A94F6CF87FEDA
S1130B4032C0822D8A0D44FE04C09A81913309F487
S1130B50815022242394181634F4282EF9E08F1798
S1130B6010F088E0282E87FE46C0C501B7FE02C0FB
S1130B7080E090E0019601110196111531F0212FCA
S1130B8030E02F5F3F4F820F931F8915910514F4B6
S1130B90592C581A882D8970811137C051102EC0D4
S1130BA00115E1F134C086FCDECFE12FF0E01A1527
S1130BB01B043CF02CEFA2162FEFB20614F068943D
S1130BC087F8329641E050E04C0F5D1FE40FF51FAB
S1130BD001C01150111519F082918033D1F387FEB1
S1130BE00AC022242394210EA116B10414F41A1964
S1130BF0BACF10E0B8CF85E090E0BDCFB70180E276
S1130C0090E00E9462115A94C9CF011529F0B701EE
S1130C10802F90E00E94621183FC02C051103EC0FC
S1130C2087FE56C04501B7FE02C0812C912CC50138
S1130C3088199909E1E0F0E0EC0FFD1FE80FF91FB6
S1130C40FD87EC879501221931091901012F10E064
S1130C50119501951109A814B9043CF1281439041B
S1130C6024F5EC85FD858181F1E08F1A91082C85AE
S1130C703D852F5F3F4F3D872C8780169106BCF042
S1130C80B70190E00E9462113FEF8316930619F7B3
S1130C90B7018EE290E00E946211DDCFB70180E3DC
S1130CA090E00E9462115A94B9CF80E3DDCFA8147A
S1130CB0B90439F49A81963348F4953311F444FE17
S1130CC005C0B70190E00E9462112FCF81E3F9CFF4
S1130CD08A81813311F0E89444F8B70190E00E94CE
S1130CE06211111125C085E490E084FC02C085E600
S1130CF090E0B7010E946211B7FC05C0A114B104D1
S1130D0071F544FE2CC0B194A194B1088DE2B701F1
S1130D1090E00E94621180E35AE0A516B1040CF53C
S1130D20B70190E00E946211B701C501C096CBCF14
S1130D30B7018EE290E00E9462111E5F02E0802FF4
S1130D400F5FE1E0F0E0EC0FFD1FE80FF11D808183
S1130D50B70190E00E9462110113F1CFC4CF8BE27E
S1130D60D6CF8F5F4AE0A41AB108D6CF933609F4E0
S1130D7082C0933709F495C0933509F4A1C0943621
S1130D8019F0993609F0CEC0F50187FEC3C0619110
S1130D907191819191916F01F82DFF768F2E97FFBC
S1130DA009C090958095709561957F4F8F4F9F4FA7
S1130DB0689487F82AE030E0AE014F5F5F4F5A0134
S1130DC00E94D611B82EBA185B2C082D86FE0AC0D4
S1130DD00E7FB11638F484FE04C082FC02C0082DD4
S1130DE00E7E512E04FFD8C0FE01EB0DF11D808153
S1130DF0803309F0CAC0097E03FD0EC000FFDBC0CA
S1130E001B2D591418F4190D1519592C892D8519F0
S1130E10951408F480E0580E591408F0CEC09518C3
S1130E20592C04FFCCC0B70180E390E00E9462110A
S1130E3002FF09C088E590E001FD02C088E790E068
S1130E40B7010E946211B11608F4C6C0BA940B2D02
S1130E5010E00F5F1F4FCE0101965C01080F191FB0
S1130E60F80182918F01B70190E00E946211A016EF
S1130E70B106B1F75ACE650182E0C80ED11CF50166
S1130E808081898301E010E09E012F5F3F4F59016B
S1130E90E89487F883FC03C00915110510F1592C57
S1130EA035C0F501A190B1906F01612F70E086FC0F
S1130EB002C06FEF7FEFC5010E9418118C01E8CFCB
S1130EC0F501A190B1906F01612F70E086FC02C022
S1130ED06FEF7FEFC5010E940D118C01689487F8B4
S1130EE0D9CFB70180E290E00E9462119A94D4CFE6
S1130EF0F50187FC859187FE81915F01B70190E040
S1130F000E94621151105A940150110901151105E2
S1130F1079F70BCE619171916F01072E000C880B4C
S1130F20990B3ACF082D0F7E2AE030E0953709F06F
S1130F3054CDF50107FF23C0619171918191919185
S1130F406F01AE014F5F5F4F5A010E94D611B82E58
S1130F50BA18802EE89487F837CF983709F04ACD2D
S1130F6004FD046020E130E0E4CF0061F9CF84FCAB
S1130F70066020E132E0DDCF28E030E0DACF619195
S1130F8071916F0180E090E0DCCF02FD02C05394C8
S1130F9033CF5394539430CF802F8678811509F43E
S1130FA02BCFF5CFB70180E290E00E946211A394A9
S1130FB0A914C0F32BCFA52CFBCF512C32CF802FFB
S1130FC08678811509F43FCF80E201FD8BE207FDAD
S1130FD08DE2B70190E035CFB70180E390E00E9445
S1130FE06211115030CF8FEF9FEF07CDF5E0512CF8
S1130FF09F1670F084E0592C581A83FC07C0B7017F
S113100080E290E00E9462115A94C9F7011529F018
S1131010B701802F90E00E94621108E610E043FCC3
S113102002C00CE610E0282D2071822E7ACDFC013E
S1131030CA01DB0120FD08C023FD05C022FF02C058
S1131040B383A283918380830895582F392FCB01D2
S1131050A52FB32F33E044FD14C034E046FD11C086
S1131060AC01BD01DA01FB01AA0FBB1FEE1FFF1F7C
S11310701094D1F74A0F5B1F6E1F7F1FDB01CA015B
S113108031E0880F991FAA1FBB1F3A95D1F7BC0105
S1131090CD01620F711D811D911D08950F931F9342
S11310A0CF93DF938C01C8010E942311EC0197FDBB
S11310B008C00E94F110892BB1F7B801CE010E943B
S11310C0BE11CE01DF91CF911F910F910895A0E041
S11310D0B0E0EDE6F8E00C94640FB82E892E8B0195
S11310E0942EA52ED22F0E942311FC019927EB32B6
S11310F019F08D9789F4D0680150104031F480E0E4
S1131100CDB7DEB7ECE00C94800F8B2D982D0E94A8
S11311102311FC0197FDF3CFCD2FCD7F8D2F80734D
S1131120811132C0E03381F5680181E0C81AD10829
S113113039F08B2D982D0E942311FC0197FF16C0C6
S1131140C12CD12C7601C7FF08C0F094E094D09450
S1131150C094C11CD11CE11CF11C2C2FB701A601A9
S1131160892D9A2D0E94170881E0CACF8F7D88357A
S113117029F5C2640250104019F38B2D982D0E945A
S11311802311FC0197FDDCCFC12CD12C760120ED7D
S11311902E0F2830D8F0C4FD09C02A30B8F0C6FF9D
S11311A005C02F7D8FEE820F863078F06B2D782D61
S11311B0CF010E94BE11C1FDC6CFA1CFD6FF03C08F
S11311C0C2608601E1CFC261FCCF27504C2FC7011A
S11311D0B6010E9425086B017C01C26001501040D9
S11311E009F4B1CF8B2D982D0E942311FC0197FF98
S11311F0CECFE1CF4F925F927F928F929F92AF9228
S1131200BF92CF92DF92EF92FF920F931F93CF93EF
S1131210DF93CDB7DEB7A0970FB6F894DEBF0FBE4D
S1131220CDBF5C016B017A01CE0101964C0180E2D5
S1131230F40111928A95E9F7F5017380890140E080
S113124050E0B0E020E0A0E061E070E0F80173FC61
S1131250959173FE9191892F8F01911119C000E02E
S113126010E0C801A0960FB6F894DEBF0FBECDBF44
S1131270DF91CF911F910F91FF90EF90DF90CF906E
S1131280BF90AF909F908F907F905F904F90089504
S11312909E3519F44115510539F1A4171506F4F4D6
S11312A09D3551F19D32D1F4211511F1E82FE695C8
S11312B0E695E695E80DF92DF11D282F27702B01F1
S11312C002C0440C551C2A95E2F79081942990831E
S11312D08B1781F08B1730F48F5FE8CF2111E6CFA5
S11312E0B92FE4CF8150E2CFA1E04F5F5F4FAECF83
S11312F021E0FBCF20E0F9CF211519F08E81806227
S11313008E83A11561F0F4019E012F5D3F4F808112
S1131310DF01319680958C93E217F307C1F77724A8
S11313207394C5010E94231197FD16C0E82FE6951A
S1131330E695E695E80DF92DF11D208130E0AC012C
S11313404770552702C0359527954A95E2F720FD49
S113135006C0B5010E94BE11711471F080CFE11472
S1131360F10419F0F70181937F0181E0C81AD108D3
S1131370712CC114D104A9F6E114F10409F471CF5C
S1131380F70110826ECFA6E0B0E0E9ECF9E00C942E
S11313905F0FC82E392E8B014A010E9423118D83C1
S11313A09E838D819E8199272D812B3231F030E8E7
S11313B0B32E8D9719F0B12C13C0B12C01501040ED
S11313C029F480E02696E1E10C947B0F8C2D932D7B
S11313D00E9423118D839E838D819E8197FDF1CF81
S11313E08D819E810E94FA108936910509F4D9C035
S11313F08E36910509F4F0C0412C512C3201E12CB8
S1131400F12C2D812053DB2C2A3008F005C168947F
S1131410D1F88B2D8870B2FEE6C0811103C09FEF16
S1131420E91AF90A0150104051F08C2D932D0E94B5
S113143023118D839E838D819E8197FFD2C0D1FE1F
S1131440C0CF8D818F7D853409F054C0580191E05F
S1131450A91AB10809F4B5CF8C2D932D0E9423113C
S11314608D839E83ED81FE81F7FDABCFCF0199275C
S1131470EB3221F08D9771F46894D4F85801F2E0BE
S1131480AF1AB10809F49DCF8C2D932D0E9423111E
S11314908D839E838D819E81C0970A9708F091CF9A
S11314A000E010E0B801110F880B990B2D81205337
S11314B040E20E94250869837A838B839C83098197
S11314C01A8121E0A21AB10859F08C2D932D0E94A3
S11314D023118D839E838D819E81C0970A9710F37B
S11314E0D4FE05C009811A81119501951109E00EF8
S11314F0F11E8501012B41F08D819E8197FD04C071
S11315006C2D732D0E94BE11C301B2010E941D0DEA
S1131510F7FE8AC0F194E194F108EBE9F1E0FA8373
S1131520E983A980BA8038E1A31AB10800E210E087
S1131530E981FA81E016F10608F07BC03497FA835A
S1131540E98316950795EA15FB0591F722C0E98111
S1131550FA81E017F10781F08C2D932D0E9423115D
S11315607C0197FD09C00E94FA10D81611F16C2D68
S1131570732DC7010E94BE1129813A81225831403E
S113158009F01FCF80E090E0A0E8BFE7BC01CD01E7
S1131590DB2CD7FC90588114910409F053C081E0EE
S11315A011CFEFE7F1E0FA83E98389819A81080F8B
S11315B0191FE981FA813196FA83E9833197D4902E
S11315C0D110C5CF29813A812F573140D9F680E017
S11315D090E0A0ECBFE7DACF2CE731E03A8329832F
S11315E0E4CFBD2C0ECF811519F0E1E0EE1AF1081D
S11315F040E2C301B2010E9425082B013C01F8E935
S11316004F16F9E95F066F06F9E17F0608F40ACF81
S11316102B2D2660D22E06CF2E3F09F010CFB3FC1F
S11316200ECF6894D3F8FECE23EB31E03A832983BE
S113163078CF25913591459154910E94AB0DE01AD4
S1131640F10A76CFF4016083718382839383A7CFF9
S1131650A0E0B0E0EEE2FBE00C94610F5C01EB0172
S1131660642E552EFC0117821682712CF501F3802D
S1131670FE01F3FC0591F3FE0191EF010115F1F078
S1131680802F90E00E94F110892B21F0C5010E9467
S11316904E08ECCF053241F4FE01F3FC1591F3FE44
S11316A01191EF01153269F4C5010E94231197FDD0
S11316B091C00817D9F2B5010E94BE11872D90E0A0
S11316C08DC000E01A3231F4F3FC1591F3FE119150
S11316D0EF0101E0C12CD12C20ED210F2A3050F173
S11316E001FF37C0C114D10449F31836B1F11C36D7
S11316F009F43DC0111511F3612F70E08AE691E001
S11317000E940211892BD1F2E12CF12C00FD06C0BC
S1131710E62DF52DE190F1906E2E5F2E1E3679F5B3
S1131720F5014681578160E070E0202FC7010E94D7
S113173017089CCF0260B60180E090E040E20E946E
S113174025086B01FE01F3FC1591F3FE1191EF01E5
S1131750C3CFCC24CA94DC2CC8CFFE01F3FC159172
S1131760F3FE1191EF01183609F0C4CF086004604C
S1131770FE01F3FC1591F3FE1191EF01BBCF13367B
S1131780C1F401FD03C0CC24C394D12CC5010E9433
S1131790231197FD1FC0E114F10419F0F70181939F
S11317A07F01F1E0CF1AD10889F700FD5FCF739470
S11317B05DCF1B35C1F49E01A701B601C5010E948E
S11317C0FA08EC01892B89F7F5018381807381156F
S11317D009F474CF8FEF9FEF711070CFCDB7DEB7E0
S11317E0EFE00C947D0FC5010E944E0897FDF2CFE7
S11317F01F3609F441C068F4193689F020F418350D
S113180069F01436B9F1A701B601C5010E94C309F4
S11318100CC01337D1F058F41037A9F70064202F07
S1131820A701B601C5010E9467088115CCCF153701
S113183009F11837F2CFE114F10419F0F70181929C
S11318407F01F1E0CF1AD10871F0C5010E94231184
S11318504C0197FD08C00E94F110892B61F3B5017A
S1131860C4010E94BE11E114F10409F49ECFF701F2
S113187010829BCF0062D3CF0061D1CF5058BB27D9
S1131880AA270E94560C0C94710D0E94630D38F027
S11318900E946A0D20F039F49F3F19F426F40C9449
S11318A0600D0EF4E095E7FB0C945A0DE92F0E94AD
S11318B0820D58F3BA17620773078407950720F05F
S11318C079F4A6F50C94A40D0EF4E0950B2EBA2F22
S11318D0A02D0B01B90190010C01CA01A001112432
S11318E0FF27591B99F0593F50F4503E68F11A16DE
S11318F0F040A22F232F342F4427585FF3CF46956F
S113190037952795A795F0405395C9F77EF41F1690
S1131910BA0B620B730B840BBAF09150A1F0FF0F5A
S1131920BB1F661F771F881FC2F70EC0BA0F621F46
S1131930731F841F48F4879577956795B795F79536
S11319409E3F08F0B0CF9395880F08F09927EE0FCB
S11319509795879508950E94BF0C0C94710D0E9471
S11319606A0D58F00E94630D40F029F45F3F29F09E
S11319700C945A0D51110C94A50D0C94600D0E94F9
S1131980820D68F39923B1F3552391F3951B550BFD
S1131990BB27AA2762177307840738F09F5F5F4F3E
S11319A0220F331F441FAA1FA9F335D00E2E3AF07D
S11319B0E0E832D091505040E695001CCAF72BD095
S11319C0FE2F29D0660F771F881FBB1F26173707E6
S11319D04807AB07B0E809F0BB0B802DBF01FF2718
S11319E093585F4F3AF09E3F510578F00C945A0D8E
S11319F00C94A50D5F3FE4F3983ED4F38695779558
S1131A006795B795F7959F5FC9F7880F911D9695D0
S1131A10879597F90895E1E0660F771F881FBB1F2C
S1131A20621773078407BA0720F0621B730B840BD9
S1131A30BA0BEE1F88F7E0950895E89409C097FB68
S1131A403EF490958095709561957F4F8F4F9F4F91
S1131A509923A9F0F92F96E9BB279395F6958795D5
S1131A6077956795B795F111F8CFFAF4BB0F11F498
S1131A7060FF1BC06F5F7F4F8F4F9F4F16C088233F
S1131A8011F096E911C0772321F09EE8872F762F75
S1131A9005C0662371F096E8862F70E060E02AF0B6
S1131AA09A95660F771F881FDAF7880F96958795A2
S1131AB097F9089597F99F6780E870E060E00895CA
S1131AC09FEF80EC089500240A9416161706180652
S1131AD00906089500240A9412161306140605062E
S1131AE00895092E0394000C11F4882352F0BB0FBF
S1131AF040F4BF2B11F460FF04C06F5F7F4F8F4F22
S1131B009F4F089557FD9058440F551F59F05F3F5C
S1131B1071F04795880F97FB991F61F09F3F79F00B
S1131B2087950895121613061406551FF2CF46958D
S1131B30F1DF08C0161617061806991FF1CF86950F
S1131B407105610508940895E894BB2766277727F3
S1131B50CB0197F908950E94BE0D0C94710D0E945B
S1131B60630D38F00E946A0D20F0952311F00C9457
S1131B705A0D0C94600D11240C94A50D0E94820D35
S1131B8070F3959FC1F3950F50E0551F629FF001CC
S1131B90729FBB27F00DB11D639FAA27F00DB11DE5
S1131BA0AA1F649F6627B00DA11D661F829F22276E
S1131BB0B00DA11D621F739FB00DA11D621F839FF5
S1131BC0A00D611D221F749F3327A00D611D231FCB
S1131BD0849F600D211D822F762F6A2F11249F5719
S1131BE050409AF0F1F088234AF0EE0FFF1FBB1F1C
S1131BF0661F771F881F91505040A9F79E3F5105DB
S1131C0080F00C945A0D0C94A50D5F3FE4F3983EBC
S1131C10D4F3869577956795B795F795E7959F5F84
S1131C20C1F7FE2B880F911D9695879597F9089516
S1131C30DB018F939F930E945B0EBF91AF91A29F94
S1131C40800D911DA39F900DB29F900D11240895B6
S1131C5097FB072E16F4009407D077FD09D00E9455
S1131C60D40F07FC05D03EF4909581959F4F0895BD
S1131C70709561957F4F0895052E97FB1EF400948F
S1131C800E94530E57FD07D00E94E80F07FC03D0B3
S1131C904EF40C94530E50954095309521953F4F3A
S1131CA04F4F5F4F089590958095709561957F4F44
S1131CB08F4F9F4F08950E940A10A59F900DB49FC7
S1131CC0900DA49F800D911D11240895DF93CF934F
S1131CD01F930F939A9DF02D219FF00D8B9DF00D76
S1131CE08A9DE02DF10D039FF00D029FE00DF11D83
S1131CF04E9DE00DF11D5E9DF00D4F9DF00D7F9307
S1131D006F93BF92AF925F934F93D5010E940A10D5
S1131D108B01AC01D7010E940A10EB01E80FF91FF7
S1131D20D6010E94B50E2F913F91D6010E940A1050
S1131D30C60FD71FE81FF91FAF91BF910E94B50EC0
S1131D402F913F910E940A10C60FD71FE81FF91F59
S1131D50D6010E940A10E60FF71F9801BE01CF01B9
S1131D600F911F91CF91DF9108950E940A10460FA1
S1131D70571FC81FD91F08F431960895689401C0ED
S1131D80E894F92FF12B12F00C94F20EA0E0B0E0DD
S1131D90ECECFEE00C94640F092E059422F40E94EE
S1131DA04E0F112392F4F0E80F26FFEFE094F09425
S1131DB000951095B094C094D094A194BF0ACF0A12
S1131DC0DF0AEF0AFF0A0F0B1F0B0E94FD0E07FC30
S1131DD00E944E0FCDB7DEB7ECE00C94800F6894F0
S1131DE001C0E8948F929F92CF93DF930E94FD0EDF
S1131DF0DF91CF919F908F90089588249924F401C6
S1131E00E401B0E49F93AA279A158B049C04ED0582
S1131E10FE05CF05D007A10798F4AD2FDC2FCF2FF7
S1131E20FE2FE92D982C892E982F872F762F652F3A
S1131E30542F432F322F2227B85031F7BF9127C098
S1131E401B2EBF91BB27220F331F441F551F661F34
S1131E50771F881F991F881C991CEE1FFF1FCC1F1A
S1131E60DD1FAA1FBB1F8A149B04EC05FD05CE05CC
S1131E70DF05A007B10748F08A189B08EC09FD09A3
S1131E80CE09DF09A00BB10B21601A94E1F62EF400
S1131E909401AF01BE01CD01000C089560957095C9
S1131EA08095909530954095509521953F4F4F4F93
S1131EB05F4F6F4F7F4F8F4F9F4F08952F923F92E9
S1131EC04F925F926F927F928F929F92AF92BF9246
S1131ED0CF92DF92EF92FF920F931F93CF93DF93F2
S1131EE0CDB7DEB7CA1BDB0B0FB6F894DEBF0FBE4F
S1131EF0CDBF09942A88398848885F846E847D849C
S1131F008C849B84AA84B984C884DF80EE80FD809D
S1131F100C811B81AA81B981CE0FD11D0FB6F89413
S1131F20DEBF0FBECDBFED010895002E083090F046
S1131F30982F872F762F652F542F432F322F222748
S1131F400850F4CF220F331F441F551F661F771FFD
S1131F50881F991F0A95B2F7002D089597FD1094D4
S1131F60002E083098F00850232F342F452F562F79
S1131F70672F782F892F912DF4CF159497958795F6
S1131F807795679557954795379527950A95AAF7B5
S1131F901124002D08952A0D3B1D4C1D5D1D6E1D41
S1131FA07F1D801F911F0895AA1BBB1B51E107C011
S1131FB0AA1FBB1FA617B70710F0A61BB70B881FD5
S1131FC0991F5A95A9F780959095BC01CD01089564
S1131FD0A1E21A2EAA1BBB1BFD010DC0AA1FBB1F29
S1131FE0EE1FFF1FA217B307E407F50720F0A21B9B
S1131FF0B30BE40BF50B661F771F881F991F1A9408
S113200069F760957095809590959B01AC01BD0131
S1132010CF010895A29FB001B39FC001A39F700D8B
S1132020811D1124911DB29F700D811D1124911DDC
S11320300895283008F027E03327DA01990F311D7D
S113204087FD916000966105710539F432602E5F59
S11320503D9330E32A95E1F708959F3F30F08038AF
S11320607105610509F03C5F3C5F3D93913008F0D8
S11320708068911DDF93CF931F930F93FF92EF928C
S1132080192F987F9695E92F96959695E90FFF2736
S1132090E653FF4F99273327EE24FF24A701E701D6
S11320A005900894079428F4360FE71EF81E491F7C
S11320B0511D660F771F881F991F0694A1F705907D
S11320C0079428F4E70EF81E491F561FC11D770F09
S11320D0881F991F661F0694A1F70590079428F49A
S11320E0F80E491F561FC71FD11D880F991F661F61
S11320F0771F0694A1F70590079420F4490F561F03
S1132100C71FD81F990F661F771F881F0694A9F74A
S113211084911095177041F0D695C79557954795BA
S1132120F794E7941A95C1F7E0E7F0E06894159006
S1132130159135916591959105907FE27395E1181C
S1132140F10A430B560BC90BD009C0F7E10CF11E81
S1132150431F561FC91FD01D7EF4703311F48A9596
S1132160E6CFE894015030F0080F0AF40027021774
S113217008F4202F2395022F7A3328F079E37D93F6
S11321802A95E9F710C07D932A9589F606949795C8
S11321906795379517951794E118F10A430B560B79
S11321A0C90BD00998F023957E9173957A3308F082
S11321B070E37C932013B8F77E9170617D9330F0C7
S11321C0839571E37D9370E32A95E1F71124EF90F1
S11321D0FF900F911F91CF91DF91992787FD9095E3
S11321E0089591110C943412803219F0895085505D
S11321F0C8F708959111089581548A5108F4805EB6
S1132200855A0895FC010590061621F00020D9F79F
S1132210C00108953197CF010895FC0105906150E4
S113222070400110D8F7809590958E0F9F1F0895E8
S1132230FC016150704001900110D8F78095909591
S11322408E0F9F1F0895CF93DF93EC018B8180FF46
S11322501BC086FF0CC08F7B8B838E819F81019670
S11322609F838E838A8190E0DF91CF91089582FFCE
S113227019C0E881F9819081292F092E000C330BB4
S1132280911105C080628B838FEF9FEFEDCF319664
S1132290F983E8838E819F8101969F838E83C90190
S11322A09927E2CFEA85FB85CE0109959C0197FF2A
S11322B0F1CF8B812F3F3F4F19F490E1892BE3CF6E
S11322C090E2FCCF0F931F93CF93DF93182F092F26
S11322D0EB018B8181FD09C01FEF0FEF812F902F40
S11322E0DF91CF911F910F91089582FF14C02E8129
S11322F03F818C819D81281739073CF4E881F9815D
S1132300CF0101969983888310838E819F810196E2
S11323109F838E83E3CFE885F985812F0995892BE7
S1132320A1F3DACFA0E0B0E0E8E9F1E10C946E0F9C
S1132330AE014B5F5F4FFA0161917191AF018091E2
S11323405A0290915B020E949F04E2E00C948A0F6F
S1132350A0E0B0E0EEEAF1E10C946E0FAE014B5F49
S11323605F4FFA0161917191AF0180915802909190
S113237059020E94280BE2E00C948A0FFB0123818E
S113238020FF11C026FD0FC08F3F980771F0828394
S11323902F7D20642383268137812150310937839F
S11323A02683992708958FEF9FEF0895FA01AA27AE
S11323B0283051F1203181F1E8946F936E7F6E5F84
S11323C07F4F8F4F9F4FAF4FB1E03ED0B4E03CD032
S11323D0670F781F891F9A1FA11D680F791F8A1F15
S11323E0911DA11D6A0F711D811D911DA11D20D07C
S11323F009F468943F912AE0269F11243019305D36
S11324003193DEF6CF010895462F4770405D419326
S1132410B3E00FD0C9F7F6CF462F4F70405D4A3373
S113242018F0495D31FD4052419302D0A9F7EACF3B
S1132430B4E0A6959795879577956795BA95C9F76A
S113244000976105710508959B01AC010A2E06945D
S11324505795479537952795BA95C9F7620F731F16
S1132460841F951FA01D0895992788270895F8941F
S1052470FFCF98
S113247248454C4C4F20574F524C44210A0D0025DD
S1132482686864004F64637A7974616E6F20783A85
S11324922025640A0D004F64637A7974616E6F209B
S11324A2793A2025640A0D0053554D3A2025640DCE
S11324B20A004D554C543A2025640D0A00444956ED
S11324C23A2025640D0A00256400256C64004F64DB
S11324D2637A7974616E6F20783A20256C640A0DF0
S11324E2004F64637A7974616E6F20793A20256CA7
S11324F2640A0D0053554D3A20256C640D0A004DB3
S1132502554C543A20256C640D0A004449563A202D
S1132512256C640D0A004F64637A7974616E6F20CE
S1132522783A20256C6420256C640A0D004F64639C
S11325327A7974616E6F20793A20256C6420256C57
S1132542640A0D0053554D3A20256C6420256C64B1
S11325520D0A004D554C543A20256C6420256C64B8
S11325620D0A004449563A20256C6420256C640DFA
S11325720A002566004F64637A7974616E6F20786D
S11325823A202566200A0D004F64637A7974616EDD
S11325926F20793A202566200A0D0053554D3A20C2
S11325A225660D0A004D554C543A2025660D0A0045
S10D25B24449563A2025660D0A003C
S9030000FC
