:100000000C9441000C945E000C945E000C945E0015
:100010000C945E000C945E000C945E000C945E00E8
:100020000C945E000C945E000C945E000C945E00D8
:100030000C945E000C945E000C945E000C945E00C8
:100040000C945E000C945E000C945E000C945E00B8
:100050000C945E000C945E000C945E000C945E00A8
:100060000C945E000C945E006364696E6F7073752F
:1000700078585B007265616400007772697465008E
:10008000000011241FBECFEFD8E0DEBFCDBF12E0CD
:10009000A0E0B1E0ECE0F7E102C005900D92A83AD3
:1000A000B107D9F722E0A8EAB2E001C01D92A73C4F
:1000B000B207E1F70E94CA040C94840B0C94000070
:1000C0009091C00095FFFCCF8093C60080E090E047
:1000D00008958091C00087FFFCCF8091C60090E01A
:1000E000089587E690E09093C5008093C400109235
:1000F000C00088E18093C10086E08093C20008952B
:100100009FE9980F963060F487558295807F9FE92C
:10011000960F963070F060536A3008F4860F089599
:1001200080538A3048F48295807F9FE9960F9630FD
:1001300090F76755860F089580E0E9CF982F929544
:100140009F708F709A3048F4905D8A304CF4805DD7
:10015000FB019083FA0180830895995A8A30BCF399
:10016000895AFB019083FA01808308952F923F9270
:100170004F925F927F928F929F92AF92BF92CF9257
:10018000DF92EF92FF920F931F93CF93DF93CDB740
:10019000DEB7A0970FB6F894DEBF0FBECDBFAE019D
:1001A0004F5F5F4F4A01E4E04E2EE1E05E2EF9E042
:1001B0002F2EF1E03F2EABE9AA2EA1E0BA2EBEEC25
:1001C000EB2EB1E0FB2E9F928F9281E091E09F9306
:1001D0008F930E948B059F928F925F924F920E9405
:1001E00045059A8189812FE9280F0FB6F894DEBF63
:1001F0000FBECDBF263008F046C187558295807F5F
:100200002FE9290F263008F448C190539A3008F49A
:10021000890F9C810B812FE9200F263008F026C121
:1002200007550295007F2FE9290F263008F428C1D1
:1002300090539A3008F4090F10E0102F00272E81F8
:100240009D813FE9390F363008F003C197559295EB
:10025000907F3FE9320F363008F405C120532A3031
:1002600008F4920F092B98852F813FE9320F363021
:1002700008F0CEC02755722E729460EF76222FE9D7
:10028000290F263008F4D1C090539A3008F4790E23
:10029000C82ED12C1F927F921F930F931F928F9382
:1002A0003F922F920E9445050FB6F894DEBF0FBE15
:1002B000CDBFF1E07F1609F4FBC00E949C04809141
:1002C000B900887F883089F08091B900887F1F92BB
:1002D0008F9346E151E05F934F930E9445050E9442
:1002E000A8040F900F900F900F90C801882791706D
:1002F000880F892F881F990B9195806A0E94C004EE
:100300008091B900887F883189F08091B900887F19
:100310001F928F93EDE3F1E0FF93EF930E94450569
:100320000E94A8040F900F900F900F90802F0E94B2
:10033000C0048091B900887F883289F08091B9002B
:10034000887F1F928F934DE651E05F934F930E94F9
:1003500045050E94A8040F900F900F900F90C601C2
:10036000880F991F009709F42ECF8E01075F1F4F4A
:1003700008966401C80ED91E34C09755792E729420
:1003800020EF72229FE9980F9630E8F180538A306F
:1003900008F4780E872D0E94C0048091B900887FF0
:1003A000883279F08091B900887F1F928F93BF9235
:1003B000AF920E9445050E94A8040F900F900F90E5
:1003C0000F901F927F92FF92EF920E9445050E5F61
:1003D0001F4F0F900F900F900F900C151D0509F4F3
:1003E000F2CEF801818190812FE9290F263028F281
:1003F00090539A3058F4792E729490EF79229FE9B5
:10040000980F963018F68755780EC4CF712CBACF56
:1004100020532A3008F044C0722E729450EF752297
:100420002FE9290F263008F02FCFC82ED12C975551
:10043000970D1F929F931F930F931F928F933F923D
:100440002F920E9445050FB6F894DEBF0FBECDBFB8
:1004500034CF90539A3030F59295907F3FE9320F28
:10046000363008F0FBCE2755920FFCCE00530A30F1
:10047000D8F40295007F2FE9290F263008F0D8CE56
:100480009755090FD9CE80538A3080F48295807FAA
:100490002FE9290F263008F0B8CE9755890FB9CE2D
:1004A000712CEDCE90E0D5CE00E0BDCE80E0A8CEA0
:1004B0000E94A4048091B900887F883F89F08091D0
:1004C000B900887F1F928F9389ED91E09F938F935E
:1004D0000E9445050E94A8040F900F900F900F9066
:1004E000A0960FB6F894DEBF0FBECDBFDF91CF91BF
:1004F0001F910F91FF90EF90DF90CF90BF90AF9042
:100500009F908F907F905F904F903F902F90089595
:10051000DF92EF92FF920F931F93CF93DF9300D060
:100520001F92CDB7DEB7CE0101969F938F9389EFCF
:1005300091E09F938F930E948B05CE0103969F932A
:100540008F938CEF91E09F938F930E948B050E9475
:100550009C048091B900887F0FB6F894DEBF0FBE6F
:10056000CDBF883089F08091B900887F1F928F932A
:1005700081E092E09F938F930E9445050E94A8041A
:100580000F900F900F900F9089819A81882791701A
:10059000880F892F881F990B9195806A0E94C0044B
:1005A0008091B900887F883189F08091B900887F77
:1005B0001F928F938DE391E09F938F930E94450547
:1005C0000E94A8040F900F900F900F9089810E94B5
:1005D000C0048091B900887F883289F08091B90089
:1005E000887F1F928F938DE691E09F938F930E9457
:1005F00045050E94A8040F900F900F900F900E9445
:100600009C048091B900887F803189F08091B90085
:10061000887F1F928F9387E292E09F938F930E942F
:1006200045050E94A8040F900F900F900F908981AC
:100630009A8188279170880F892F881F990B91952F
:10064000816A0E94C0048B81982F92959F708F7051
:100650009A3008F04DC1905D8A300CF04DC1805D3C
:10066000282F082E000C330B3F938F93292F092E30
:10067000000C330B3F939F938FE492E09F938F93F3
:100680000E9445058A81982F92959F708F700F90D8
:100690000F900F900F900F900F909A3008F034C188
:1006A000905D8A300CF034C1805D282F082E000C3C
:1006B000330B3F938F93292F092E000C330B3F935D
:1006C0009F938FE492E09F938F930E9445058981C9
:1006D000982F92959F708F700F900F900F900F90A2
:1006E0000F900F909A3008F009C1905D8A300CF09D
:1006F00009C1805D282F082E000C330B3F938F9388
:10070000292F092E000C330B3F939F930FE412E027
:100710001F930F930E9445051F9280E38F931F92B2
:100720008F931F930F930E944505D9808A819B81E7
:10073000D90ED80E0FB6F894DEBF0FBECDBF9130E4
:10074000D1F100E010E08FE4E82E82E0F82E23C023
:10075000905D8A3074F5805D282F082E000C330BD5
:100760003F938F93292F092E000C330B3F939F93B8
:10077000FF92EF920E9445050F5F1F4F2B8130E0E3
:10078000215031090F900F900F900F900F900F9004
:100790000217130780F40E94AC048093A802D80EBD
:1007A000982F92959F708F709A3090F2995A8A3054
:1007B00094F2895AD1CF0E94B6048093A8029091F6
:1007C000B900987F983599F08091B900887F1F9281
:1007D0008F9384E592E09F938F930E9445050E943A
:1007E000A8048091A8020F900F900F900F90982F5F
:1007F00092959F70282F2F709A3008F08DC0905DD1
:100800002A300CF087C0205DD80E422F022E000C3B
:10081000550B5F932F93292F092E000C330B3F9319
:100820009F938FE492E09F938F930E9445051D2D27
:100830001195812F82958F70912F9F700F900F903F
:100840000F900F900F900F908A3008F04BC0805D92
:100850009A300CF04BC0905D292F092E000C330B01
:100860003F939F93282F082E000C330B3F938F93B9
:100870008FE492E09F938F930E94450584E191E07D
:100880000E945B051F921F938BE792E09F938F93CB
:100890000E9445050E94A4048091B900887F0FB68C
:1008A000F894DEBF0FBECDBF883F89F08091B900BC
:1008B000887F1F928F9389ED91E09F938F930E9481
:1008C00045050E94A8040F900F900F900F900F9075
:1008D0000F900F90DF91CF911F910F91FF90EF90AC
:1008E000DF900895895A9A300CF4B5CF995AB4CF55
:1008F000995A8A300CF4B3CE895AB2CE995A8A30BA
:100900000CF4F7CE895AF6CE995A8A300CF4CCCE34
:10091000895ACBCE295A78CF995A72CF80E28093E8
:10092000B800ECEBF0E080818460808308958091D2
:10093000BC0087FFFCCF089584EA8093BC008091BF
:10094000BC0087FFFCCF089584E98093BC00089524
:1009500080E98093BC00089584EC8093BC00809172
:10096000BC0087FFFCCF8091BB00089584E8809392
:10097000BC008091BC0087FFFCCF8091BB00089534
:100980008093BB0084E88093BC008091BC0087FF0B
:10099000FCCF089587E690E09093C5008093C40053
:1009A0001092C00088E18093C10086E08093C2006D
:1009B0008BEA92E020E630E03093B4022093B30259
:1009C00029E630E03093B6022093B50223E020936D
:1009D000AE021092B8021092B7029093C6028093B2
:1009E000C5029093C4028093C3029093C202809385
:1009F000C1020E948E04C9EBD2E001E011E08EE753
:100A0000E82E82E0F82EDF93CF931F930F930E947E
:100A10008B056AE770E089EB92E00E943C050F903D
:100A20000F900F900F90892BD1F064E770E089EB65
:100A300092E00E943C05892B69F4DF93CF93FF92EB
:100A4000EF920E9445050E9488020F900F900F9030
:100A50000F90D9CF81E992E00E945B05D4CFDF935C
:100A6000CF93FF92EF920E9445050E94B6000F902F
:100A70000F900F900F90C7CFFB01DC018D91059077
:100A800080190110D9F3990B0895A0E0B0E0EBE4D0
:100A9000F5E00C945D0BAE014B5F5F4FFA01619185
:100AA0007191AF018091C3029091C4020E94A1058F
:100AB000E2E00C94790B0F931F93CF93DF93E091B7
:100AC000C302F091C402238121FF1BC08C01D0E03E
:100AD000C0E0F80181918F016091C3027091C4025E
:100AE000DB011896ED91FC911997882331F0099557
:100AF000892B79F3DFEFCFEFECCF8AE00995892BD3
:100B000019F08FEF9FEF02C08D2F9C2FDF91CF91B7
:100B10001F910F910895A0E0B0E0E1E9F5E00C9499
:100B20005D0BAE014B5F5F4FFA0161917191AF01B7
:100B30008091C1029091C2020E941E09E2E00C94D1
:100B4000790BABE0B0E0E7EAF5E00C944D0B6C01FB
:100B50007B018A01FC0117821682838181FFCCC14F
:100B6000CE0101963C01F6019381F70193FD859139
:100B700093FF81917F01882309F4BAC1853239F44A
:100B800093FD859193FF81917F01853229F4B60110
:100B900090E00E94970AE7CF912C212C312CFFE1A5
:100BA000F315D8F08B3279F038F4803279F0833253
:100BB000A1F4232D20611DC08D3261F0803369F4D2
:100BC000232D216016C0832D8260382EE32DE46032
:100BD0003E2E2AC0F32DF8601DC037FC2DC020ED3D
:100BE000280F2A3040F08E32B9F436FC81C1232D13
:100BF0002064322E19C036FE06C08AE0989E200D71
:100C00001124922E11C0EAE02E9E200D1124222ED6
:100C1000F32DF0623F2E08C08C3621F4832D8068BE
:100C2000382E02C0883641F4F70193FD859193FF79
:100C300081917F018111B3CF982F9F7D955493307F
:100C400028F40C5F1F4F9FE399830DC0833631F06A
:100C5000833771F0833509F059C021C0F8018081D4
:100C600089830E5F1F4F88248394912C530113C0F6
:100C70002801F2E04F0E511CF801A080B18036FE31
:100C800003C0692D70E002C06FEF7FEFC5010E94C5
:100C90004E0A4C018201F32DFF773F2E16C028012A
:100CA00022E0420E511CF801A080B18036FE03C044
:100CB000692D70E002C06FEF7FEFC5010E94430A0B
:100CC0004C01F32DF0683F2E820133FC1BC0822DB6
:100CD00090E088169906B0F4B60180E290E00E9498
:100CE000970A2A94F4CFF50137FC859137FE81915C
:100CF0005F01B60190E00E94970A21102A9421E03A
:100D0000821A91088114910471F7E8C0843611F0B9
:100D1000893641F5F80137FE07C060817181828113
:100D200093810C5F1F4F08C060817181072E000CFA
:100D3000880B990B0E5F1F4FF32DFF763F2E97FF09
:100D400009C090958095709561957F4F8F4F9F4F0B
:100D5000F0683F2E2AE030E0A3010E94EC0A882EC2
:100D6000861845C0853731F4232D2F7EB22E2AE018
:100D700030E025C0932D997FB92E8F36C1F018F43D
:100D8000883579F0B5C0803719F0883721F0B0C0C8
:100D9000E92FE061BE2EB4FE0DC0FB2DF460BF2E26
:100DA00009C034FE0AC0292F2660B22E06C028E0F2
:100DB00030E005C020E130E002C020E132E0F8017F
:100DC000B7FE07C060817181828193810C5F1F4FE4
:100DD00006C06081718180E090E00E5F1F4FA3012B
:100DE0000E94EC0A882E8618FB2DFF773F2E36FED8
:100DF0000DC0232D2E7FA22E891458F434FE0BC073
:100E000032FC09C0832D8E7EA82E05C0B82CA32CE1
:100E100003C0B82C01C0B92CA4FE0FC0FE01E80D20
:100E2000F11D8081803321F49A2D997EA92E09C06D
:100E3000A2FE06C0B394B39404C08A2D867809F04C
:100E4000B394A3FC11C0A0FE06C0B21488F4280C11
:100E5000922C9B180EC0B21460F4B60180E290E0B0
:100E60000E94970AB394F7CFB21418F42B1802C05B
:100E7000982C212CA4FE10C0B60180E390E00E94C3
:100E8000970AA2FE17C0A1FC03C088E790E002C049
:100E900088E590E0B6010CC08A2D867859F0A1FE55
:100EA00002C08BE201C080E2A7FC8DE2B60190E0B7
:100EB0000E94970A891438F4B60180E390E00E94FA
:100EC000970A9A94F7CF8A94F301E80DF11D808177
:100ED000B60190E00E94970A8110F5CF222009F414
:100EE00042CEB60180E290E00E94970A2A94F6CFA3
:100EF000F6018681978102C08FEF9FEF2B96E2E18A
:100F00000C94690B20FD09C0FC0123FD05C022FFE4
:100F100002C07383628351834083089544FD17C0E8
:100F200046FD17C0AB01BC01DA01FB01AA0FBB1FD4
:100F3000EE1FFF1F1094D1F74A0F5B1F6E1F7F1F1C
:100F4000CB01BA01660F771F881F991F09C033E0D4
:100F500001C034E0660F771F881F991F3150D1F709
:100F6000620F711D811D911D08950F931F93CF93E3
:100F7000DF938C01C8010E94590AEC0197FD08C05B
:100F80000E942F0A892BB1F7B801CE010E94D30A23
:100F9000CE01DF91CF911F910F9108958F929F9273
:100FA000AF92BF92EF92FF920F931F93CF93DF9375
:100FB0008C01D62F7A01B22E0E94590A9C01332748
:100FC0002B32310531F02D32310561F48B2D8068E3
:100FD000B82ED15011F480E068C0C8010E94590AAF
:100FE00097FDF9CFCB2DCD7F2B2D207309F58033C5
:100FF000F9F4AA24AA94AD0E09F443C0C8010E94D2
:10100000590A97FD3EC09C012F7D332728353105B5
:1010100049F4C264D250A9F1C8010E94590A97FF4D
:1010200007C02FC0B6FE02C0C26001C0C261DA2D87
:10103000812C912C540120ED280F283080F0C4FF22
:1010400004C0B8010E94D30A19C02A3040F0C6FF7C
:10105000F8CF2F7D3FEE320F363098F727504C2FC8
:10106000C501B4010E948E074B015C01C260D150E2
:1010700059F0C8010E94590A97FFDDCFC1FD04C095
:10108000AACF812C912C5401C7FF08C0B094A09422
:1010900090948094811C911CA11CB11C2C2FB50133
:1010A000A401C7010E94820781E0DF91CF911F91C7
:1010B0000F91FF90EF90BF90AF909F908F90089509
:1010C000A0E2B0E0E6E6F8E00C94500B5C01962E4E
:1010D0007A01F9018E010F5F1F4F680180E2D8018C
:1010E0001D928A95E9F7D50113968C9080E090E0E7
:1010F000612C712C30E061E070E083FC259183FE6F
:1011000021918F01522E211103C080E090E092C006
:101110002E3511F4009751F1432F50E0481759072D
:101120003CF42D3559F12D3219F4772009F103C023
:10113000772009F46AC0452D469546954695D60117
:10114000A40FB11D452D47708B0102C0000F111F68
:101150004A95E2F7A8015C91452B4C93651459F030
:10116000561410F45394E7CF5A94E5CF31E004C0FD
:101170007724739401C0712C0196BFCF772019F0AA
:101180008E8180628E83311103C08824839417C0BE
:10119000F6019E012F5D3F4F8081809581932E1730
:1011A0003F07D1F7F2CFE114F10429F0D7018C9376
:1011B000F70131967F019A94812C9920F9F0C501AD
:1011C0000E94590A97FD18C0FC01FF2723E0F595FE
:1011D000E7952A95E1F7EC0DFD1D208130E0AC018B
:1011E0004770552702C0359527954A95E2F720FDAF
:1011F000DACFB5010E94D30A811087CFE114F10440
:1012000011F0D7011C92C80115C0422F4695469592
:101210004695D601A40FB11D422F47708B0102C025
:10122000000F111F4A95E2F7A8015C91452B4C93E2
:10123000622EA2CFA096EFE00C946C0BA0E0B0E081
:10124000E4E2F9E00C94500B6C01EB015A01FC0153
:1012500017821682512CF601E380FE01E3FC859192
:10126000E3FE8191182FEF01882309F4EEC090E08E
:101270000E942F0A892B21F0C6010E94B507EBCFEF
:10128000153241F4FE01E3FC1591E3FE1191EF01EB
:10129000153281F4C6010E94590A97FDD4C0412F2E
:1012A00050E09C01332724173507A9F2B6010E94AC
:1012B000D30ACBC01A3239F4E3FC1591E3FE119145
:1012C000EF0101E001C000E0F12C20ED210F2A30F8
:1012D00080F402606F2D70E080E090E040E20E94B8
:1012E0008E07F62EFE01E3FC1591E3FE1191EF014E
:1012F000ECCF01FF03C0F11003C0A7C0FF24FA9494
:10130000183619F01C3651F010C0FE01E3FC15919F
:10131000E3FE1191EF01183641F408600460FE010C
:10132000E3FC1591E3FE1191EF01112309F48DC047
:10133000612F70E088E690E00E94380A892B09F45A
:1013400084C000FD07C0F50180809180C501029630
:101350005C0102C0812C912C1E3651F4F6014681AD
:10136000578160E070E0202FC4010E94820773CF94
:101370001336A9F401FD02C0FF24F394C6010E94B4
:10138000590A97FD60C08114910429F0F40180830B
:10139000C40101964C01FA94F110F0CF50C01B35F6
:1013A00059F49E01A4016F2DC6010E946008EC0152
:1013B000892B09F044C03EC0C6010E94B50797FDC5
:1013C00042C01F3661F128F4143639F1193651F153
:1013D00028C0133771F0153701F123C0811491042F
:1013E00029F0F4016082C40101964C01FA94FF20B7
:1013F00071F0C6010E94590A3C0197FD08C00E9485
:101400002F0A892B59F3B601C3010E94D30A811414
:101410009104A9F0F401108212C0006203C00061BF
:1014200001C00064202FA4016F2DC6010E94CE07C9
:10143000811105C0F6018381807329F406C000FD87
:101440000ACF539408CF552019F0852D90E002C0A3
:101450008FEF9FEFCDB7DEB7EFE00C946C0B9111DF
:101460000C944A0B803219F089508550C8F70895C2
:10147000FC010590061621F00020D9F7C00108955F
:101480003197CF010895FC01059061507040011023
:10149000D8F7809590958E0F9F1F0895FC0161509D
:1014A000704001900110D8F7809590958E0F9F1F86
:1014B0000895CF93DF93EC012B8120FF33C026FFEB
:1014C0000AC02F7B2B838E819F8101969F838E8301
:1014D0008A8190E029C022FF0FC0E881F9818081D4
:1014E000082E000C990B009719F420622B831AC068
:1014F0003196F983E8830EC0EA85FB85099597FF4D
:1015000009C02B81019611F080E201C080E1822B9D
:101510008B8308C02E813F812F5F3F4F3F832E83F7
:10152000992702C08FEF9FEFDF91CF9108950F931E
:101530001F93CF93DF93FB01238121FD03C08FEF26
:101540009FEF2CC022FF16C0468157812481358130
:101550004217530744F4A081B1819D012F5F3F4F93
:10156000318320838C93268137812F5F3F4F3783D0
:10157000268314C08B01EC01FB010084F185E02D72
:101580000995892BE1F6D80116968D919C911797B4
:10159000019617969C938E931697CE01DF91CF916B
:1015A0001F910F910895FB01238120FF12C026FD9A
:1015B00010C08F3F3FEF930761F082832F7D20643F
:1015C0002383268137812150310937832683992748
:1015D00008958FEF9FEF0895FA01AA27283051F15F
:1015E000203181F1E8946F936E7F6E5F7F4F8F4F54
:1015F0009F4FAF4FB1E03ED0B4E03CD0670F781FB3
:10160000891F9A1FA11D680F791F8A1F911DA11D97
:101610006A0F711D811D911DA11D20D009F46894D0
:101620003F912AE0269F11243019305D3193DEF678
:10163000CF010895462F4770405D4193B3E00FD02E
:10164000C9F7F6CF462F4F70405D4A3318F0495D19
:1016500031FD4052419302D0A9F7EACFB4E0A695FC
:101660009795879577956795BA95C9F7009761051E
:10167000710508959B01AC010A2E06945795479574
:1016800037952795BA95C9F7620F731F841F951F69
:10169000A01D08959927882708952F923F924F9271
:1016A0005F926F927F928F929F92AF92BF92CF92F2
:1016B000DF92EF92FF920F931F93CF93DF93CDB7FB
:1016C000DEB7CA1BDB0B0FB6F894DEBF0FBECDBF73
:1016D00009942A88398848885F846E847D848C8444
:1016E0009B84AA84B984C884DF80EE80FD800C814D
:1016F0001B81AA81B981CE0FD11D0FB6F894DEBF30
:0C1700000FBECDBFED010895F894FFCF9F
:10170C00A025730025730A0D0025642C2025642C5C
:10171C002025640A0D0049324320777269746520D4
:10172C007374617274206661696C65642C207374C7
:10173C00617475733A20252E32780D0A00493243B4
:10174C0020454550524F4D20777269746520726563
:10175C007175657374206661696C65642C20737493
:10176C00617475733A20252E32780D0A0049324384
:10177C0020454550524F4D2073657420616464724E
:10178C00657373206661696C65642C207374617475
:10179C0075733A20252E32780D0A004932432045C4
:1017AC004550524F4D2064617461207472616E73A8
:1017BC006D6974746564206661696C65642C207352
:1017CC0074617475733A20252E32780D0A004441E9
:1017DC0054413A2025640A0D004932432073746F3A
:1017EC0070206661696C65642C2073746174757308
:1017FC003A20252E32780D0A002578002568686479
:10180C0000493243207265616420737461727420E4
:10181C006661696C65642C207374617475733A200D
:10182C00252E32780D0A00493243207365636F6EA2
:10183C0064207374617274206661696C65642C2019
:10184C007374617475733A20252E32780D0A002555
:10185C006325630049324320454550524F4D207259
:10186C00656164206661696C65642C2073746174B5
:10187C0075733A20252E32780D0A00256400496EC6
:10188C00737472756374696F6E3A202573200D0A38
:10189C0000496E76616C696420496E73747275636D
:0818AC0074696F6E200D00004D
:00000001FF
