:100000000C9434000C9451000C9451000C94510049
:100010000C9451000C9451000C9451000C9451001C
:100020000C9451000C9451000C9451000C94F1125A
:100030000C9451000C9451000C9451000C945100FC
:100040000C9451000C9451000C9479010C94C00153
:100050000C9451000C9463000C9451000C945100CA
:100060000C9451000C94510011241FBECFEFD8E026
:10007000DEBFCDBF11E0A0E0B1E0EEEDFCE202C0DA
:1000800005900D92A234B107D9F727E0A2E4B1E0C0
:1000900001C01D92A23DB207E1F70E94F4120C9438
:1000A0006D160C94000080E480937C0087E08093C0
:1000B0007E00EAE7F0E08083808180688083808131
:1000C0008860808308951F920F920FB60F921124BB
:1000D0002F933F934F935F936F937F938F939F9350
:1000E000AF93BF93EF93FF9320E040E050E060E0D8
:1000F00070E08091C4079091C5070E941F0BFF918B
:10010000EF91BF91AF919F918F917F916F915F918F
:100110004F913F912F910F900FBE0F901F90189508
:10012000CF93DF93C82F6FEF7FEF8091C20790913D
:10013000C3070E94990CECE7F0E08081807FC82B18
:10014000C083EAE7F0E08081806480836FEF7FEF17
:100150008091C4079091C5070E94990CC0917800C6
:10016000D091790020E040E050E060E070E08091C4
:10017000C2079091C3070E941F0BCE01DF91CF9160
:100180000895D82F882321F0813021F0C3E603C0E1
:10019000C2E601C0C1E6EC2E0C2E000CFF080FE2F7
:1001A00011E08D2F0E949000D82EC92E6FEF7FEFA7
:1001B0008091C6079091C7070E94990CCF92DF9259
:1001C000FF92CF931F930F930E948F1320E040E084
:1001D00050E060E070E08091C6079091C7070E94F0
:1001E0001F0B88E893E10E9434060F900F900F9048
:1001F0000F900F900F90D5CF08951092C50087E60D
:100200008093C400E0ECF0E080818D7F808386E005
:100210008093C20088E18093C10040E061E080E803
:100220000E94F70A9093CB078093CA0740E061E0F1
:1002300080E80E94F70A9093C9078093C807089541
:10024000CF93DF931F92CDB7DEB789838091C80724
:100250009091C9070E94FF0D811109C08091C100D2
:1002600080628093C10020E04FEF5FEF03C020E089
:1002700040E050E0BE016F5F7F4F8091C8079091D2
:10028000C9070E941F0B89818A3029F48091C1001F
:1002900080628093C10080E090E00F90DF91CF9169
:1002A0000895CF93DF931F92CDB7DEB78091CA0731
:1002B0009091CB070E94F70D811108C08091C10079
:1002C00080688093C1004FEF5FEF02C040E050E0D4
:1002D000BE016F5F7F4F8091CA079091CB070E944C
:1002E000070C8981082E000C990B0F90DF91CF919C
:1002F00008951F920F920FB60F9211242F933F93E0
:100300004F935F936F937F938F939F93AF93BF931D
:10031000EF93FF93CF93DF931F92CDB7DEB780911A
:10032000CA079091CB070E94090E803831F4809162
:10033000C1008F778093C1000FC08091C600898370
:1003400020E040E050E0BE016F5F7F4F8091CA0720
:100350009091CB070E94B50B0F90DF91CF91FF9149
:10036000EF91BF91AF919F918F917F916F915F912D
:100370004F913F912F910F900FBE0F901F901895A6
:100380001F920F920FB60F9211242F933F934F930A
:100390005F936F937F938F939F93AF93BF93EF93ED
:1003A000FF93CF93DF931F92CDB7DEB78091C8073D
:1003B0009091C9070E94090E811106C08091C10069
:1003C0008F7D8093C10010C040E050E0BE016F5FA0
:1003D0007F4F8091C8079091C9070E94B10D81306D
:1003E00019F489818093C6000F90DF91CF91FF911E
:1003F000EF91BF91AF919F918F917F916F915F919D
:100400004F913F912F910F900FBE0F901F90189515
:10041000E0917001F09171018081811103C08FEF33
:100420009FEF0CC0E0917001F09171010580F681A1
:10043000E02D0680F781E02D828193819093480121
:10044000809347010895FF920F931F93CF93DF93FB
:10045000EC01F62E00914F01109150018091420164
:100460009091430102960E94640FCF3F8FEFD8070F
:1004700089F4FF2079F060914201709143016E5F31
:100480007F4F82E591E0DF91CF911F910F91FF9017
:100490000C940B0FC00FD11FE0914201F09143016A
:1004A000D383C2836091420170914301C017D10789
:1004B00068F480916E0190916F016E5F7F4FDF91C4
:1004C000CF911F910F91FF900C942C0F8091700190
:1004D000909171016E5F7F4F0E942C0F80914701B8
:1004E00090914801C817D90720F4D0934801C093D0
:1004F0004701DF91CF911F910F91FF900895809157
:100500005B01882309F10FB6F8940F92E091610125
:10051000F0916201C681D781CE0102960E94640FDC
:100520008091510181508093510180915B018150F4
:1005300080935B010F900FBE8F89988D0E94801170
:10054000CE010E948011DBCF80918401823010F0B7
:100550000E943C120E94FC00D2CF3F924F925F92C9
:100560006F927F928F929F92AF92BF92CF92DF92C3
:10057000EF92FF920F931F93CF93DF934C01162FAF
:10058000372E6A015901CA010E944E112C01892B94
:1005900009F4D1C086E290E00E944E11EC01892B53
:1005A00079F0588E4F8AC60101973201680E791E84
:1005B000BE01675E7F4FE12FF32DCF01089607C084
:1005C000C2010E948011B7C0E817F90749F09F01E6
:1005D0004191DB014D93BD01D9012C912111F4CF43
:1005E00018A2043008F003E00E8B6E01B2E0CB0ECF
:1005F000D11CC6010E94070FCE010C960E94070F66
:10060000D987C88784E090E0801B91099D878C87FB
:10061000DB8BCA8B19A21AA21BA21CA21DA2A501C8
:10062000B401C3010E948F1199838883E114F104FE
:1006300019F0F701D183C0830FB6F8940F9280911F
:1006400051018F5F8093510180914201909143014C
:10065000892BD1F5D0934301C09342018091510180
:10066000813009F041C084E891E00E94F90E8DE8E4
:1006700091E00E94F90E86E991E00E94F90E8FE95F
:1006800091E00E94F90E8BE791E00E94F90E82E75B
:1006900091E00E94F90E85E691E00E94F90E8CE54A
:1006A00091E00E94F90E82E591E00E94F90E8BE73D
:1006B00091E0909371018093700182E791E09093B3
:1006C0006F0180936E0110C080914D0181110CC0AB
:1006D000E0914201F091430196898E89891720F0BB
:1006E000D0934301C0934201809149018F5F809371
:1006F00049018E8990914E01981710F480934E0114
:10070000F9E08F9FC0011124B6018C579E4F0E94C3
:100710000B0F0F900FBE80914D01882351F0E09197
:100720004201F091430196898E89981710F40E9436
:100730003C1281E001C08FEFDF91CF911F910F91AB
:10074000FF90EF90DF90CF90BF90AF909F908F90F1
:100750007F906F905F904F903F9008950F931F93FD
:10076000CF93DF93EC010FB6F8940F92892B21F40D
:10077000C0914201D09143018E010E5F1F4FC8010D
:100780000E94640F8C899D89892B21F0CE010C96E3
:100790000E94640F809149018F5F8093490180918D
:1007A000420190914301C817D90759F4B8018CE56B
:1007B00091E00E940B0F80915B018F5F80935B0142
:1007C0000EC0809151018150809351018F89988D85
:1007D0000E948011CE010E9480110E9408020F9099
:1007E0000FBE80914D01882349F080914201909184
:1007F0004301C817D90711F40E943C12DF91CF9131
:100800001F910F9108950F931F93CF93DF93209122
:1008100042013091430182179307B9F10097A9F182
:100820000FB6F8940F92FC01228533852255314092
:1008300051F5FC0124893589F1E025363F0719F18E
:10084000232B09F5EC018C010E5F1F4FC8010E949C
:10085000640F8E8990914E01981710F480934E0189
:1008600029E0829FC0011124B8018C579E4F0E943D
:100870000B0FE0914201F09143019E898689981700
:1008800010F00E943C120F900FBEDF91CF911F918C
:100890000F910895EF92FF921F93CF93DF93EC0196
:1008A0008A859B858255914099F48C899D8921E0A8
:1008B0008536920769F0892B59F480914401882389
:1008C00049F0BE01645F7F4F85E691E00E940B0F07
:1008D00010E021C0E0914201F091430111E09E89B6
:1008E0008689981708F410E07E0182E0E80EF11C7A
:1008F000C7010E94640F8E8990914E01981710F4E1
:1009000080934E0129E0829FC0011124B7018C57CA
:100910009E4F0E940B0F812FDF91CF911F91FF906F
:10092000EF900895EF92FF920F9385E4E82E81E017
:10093000F82E00E020E030E045E550E06CE371E0A7
:100940008FE792E00E94AD02813091F4F8942FEF8E
:100950003FEF309348012093470180934D0110925F
:10096000500110924F010F91FF90EF900C94FB11EA
:100970000F91FF90EF900895F89410924D010C9410
:100980003B12809144018F5F8093440108950FB61C
:10099000F8940F9280914F01909150010F900FBEEB
:1009A000089580914F0190915001089580915101D7
:1009B0000895009721F48091420190914301499656
:1009C0000895CF92DF92EF92FF920F931F93CF93F0
:1009D000DF938091440181118CC000914F011091EF
:1009E00050010F5F1F4F1093500100934F010115ED
:1009F0001105B9F4809170019091710120916E01FF
:100A000030916F01309371012093700190936F01C9
:100A100080936E0180914A018F5F80934A010E940A
:100A200008028091470190914801C0E0081719071A
:100A300008F44FC0D9E0E0917001F091710180811C
:100A4000811103C08FEF9FEF11C0E0917001F09111
:100A500071010580F681E02DE680F780D7011296BE
:100A60008D919C9113970817190728F490934801CA
:100A7000809347012EC06701B2E0CB0ED11CC601A6
:100A80000E94640FF70184899589892B21F0C701A1
:100A90000C960E94640FD70156968C9190914E014E
:100AA000981710F480934E01D89FC0011124B6010D
:100AB0008C579E4F0E940B0FE0914201F091430131
:100AC000D70156969C918689981708F4B4CFC1E057
:100AD000B2CFE0914201F0914301E689B9E0EB9F8A
:100AE000F0011124EC57FE4F8081823040F0C1E0CC
:100AF00006C080914C018F5F80934C01C0E08091D3
:100B00004B018111C1E08C2FDF91CF911F910F918B
:100B1000FF90EF90DF90CF900895EF92FF920F93A8
:100B20001F93CF93DF930FB6F8940F9280914401F7
:100B300081508093440180914401882311F080E02A
:100B400052C0809151018823D1F3C0E0D0E089E008
:100B5000F82EEE24E39480916501882351F1E09111
:100B60006A01F0916B01C681D781CE010C960E947B
:100B7000640F8E010E5F1F4FC8010E94640F8E89A3
:100B800090914E01981710F480934E01F89EC00189
:100B90001124B8018C579E4F0E940B0FE091420127
:100BA000F09143019E8986899817A8F2E0924B0143
:100BB000D2CFCD2B11F00E940802C0914C01CC2362
:100BC00051F0D1E00E94E1048111D0934B01C1505A
:100BD000C9F710924C0180914B01882309F4AFCFE3
:100BE0000E943C1281E00F900FBEDF91CF911F91C8
:100BF0000F91FF90EF9008950F931F93CF93DF9382
:100C00008C01EB010E94C10440914F0150915001B1
:100C1000F80120813181C9018C0F9D1F42175307B4
:100C200020F48217930740F403C08217930730F033
:100C300021E04817590718F020E001C021E0F80131
:100C400091838083222329F060E0841B950B0E940E
:100C500023020E948D05811102C00E943C12DF9187
:100C6000CF911F910F910895CF93DF93EC01892BC2
:100C700019F40E943C120AC00E94C10460E0CE0137
:100C80000E9423020E948D05882399F3DF91CF9162
:100C9000089580914401882321F081E080934B01E5
:100CA000089510924B0180914E0169E0482F50E069
:100CB000649F9001659F300D1124F901EC57FE4FA0
:100CC0009081911102C08150F1CFA181B281129621
:100CD0000D90BC91A02DB283A18329573E4FA2173E
:100CE000B30731F412962D913C91139732832183EF
:100CF00099E0949FF001959FF00D1124EC57FE4F61
:100D00000180F281E02D26813781309343012093C9
:100D1000420180934E0108950F931F93CF93DF9369
:100D2000EC010FB6F8940F92892B21F4C091420187
:100D3000D09143018E010E5F1F4FC8010E94640FC6
:100D40008C899D89892B21F0CE010C960E94640F1D
:100D5000B80182E591E00E940B0F8DA1813009F46A
:100D60001DA20F900FBE80914D01882339F00FB660
:100D7000F8940F920E9408020F900FBE80914201DA
:100D800090914301C817D907C1F480914D01882380
:100D900019F00E943C1211C09091520180915101B2
:100DA000981305C0109243011092420106C0DF91D2
:100DB000CF911F910F910C944906DF91CF911F9114
:100DC0000F910895CF93DF93EB01609142017091F1
:100DD0004301645F7F4F0E942C0F61E0CE01DF91E1
:100DE000CF910C942302CF93DF93EA01E09142016B
:100DF000F09143017068758764876091420170913A
:100E00004301645F7F4F0E940B0F61E0CE01DF91D1
:100E1000CF910C9423020F931F93CF93DF93DC01A8
:100E20001596ED91FC911697C681D7818E01045FCE
:100E30001F4FC8010E94640F80914401811114C0AA
:100E40000A501109C8010E94640F8E8990914E01C9
:100E5000981710F480934E01B9E08B9FC0011124C4
:100E6000B8018C579E4F03C0B80185E691E00E94FF
:100E70000B0FE0914201F09143019E898689891709
:100E800020F481E080934B0101C080E0DF91CF919D
:100E90001F910F9108950F931F93CF93DF93706865
:100EA000FC0171836083C681D7810E94640F8E012B
:100EB0000E5F1F4FC8010E94640F8E8990914E01F2
:100EC000981710F480934E01F9E08F9FC001112410
:100ED000B8018C579E4F0E940B0FE0914201F09198
:100EE00043019E898689891718F481E080934B011C
:100EF000DF91CF911F910F9108950FB6F8940F9243
:100F000020914A01FC01208320914F013091500132
:100F1000328321830F900FBE089520914A01FC0176
:100F2000208320914F013091500132832183089515
:100F3000CF93DF930FB6F8940F9240914F015091E9
:100F40005001DB012D913C912F3FBFEF3B07D9F0C2
:100F5000EC01E981FA81A0914A01B881BA1719F030
:100F60004E175F0790F44E1B5F0BFB0142175307B0
:100F700038F4241B350B318320830E948D0703C076
:100F80001182108202C080E001C081E00F900FBE8C
:100F9000DF91CF91089581E080934B010895809176
:100FA0004201909143010895E0914201F091430183
:100FB00084859585E0914201F0914301A091420121
:100FC000B091430156964C9124E030E0241B310946
:100FD0003587248708950F931F93182FCB010FB6E1
:100FE000F8940F92E0914201F091430141A152A186
:100FF00063A174A1452B462B472B69F4E091420174
:10100000F091430121E025A3009729F061E00E94BF
:1010100023020E943C120F900FBE0FB6F8940F925D
:10102000E0914201F091430161A172A183A194A1D9
:101030006115710581059105A9F0E0914201F091DA
:101040004301112329F011A212A213A214A20AC073
:101050008B019C01015011092109310901A312A33F
:1010600023A334A3E0914201F091430115A20F9014
:101070000FBE1F910F9108954F925F926F927F92D2
:101080008F929F92AF92BF92EF92FF920F931F9316
:1010900049015A010FB6F8940F92E0914201F09184
:1010A000430125A1223039F1E0914201F091430141
:1010B00021A132A143A154A12B013C0140945094A1
:1010C00060947094D301C20182239323A423B52397
:1010D00081A392A3A3A3B4A3E0914201F0914301A1
:1010E00081E085A3E114F10431F061E0C7010E94C1
:1010F00023020E943C120F900FBE0FB6F8940F927D
:101100000115110569F0E0914201F091430181A1BF
:1011100092A1A3A1B4A1F80180839183A283B38398
:10112000E0914201F091430185A18230C1F4E09148
:101130004201F091430141A152A163A174A1D501E3
:10114000C40180959095A095B09584239523A623FE
:10115000B72381A392A3A3A3B4A381E001C080E03D
:10116000E0914201F091430115A20F900FBE1F9133
:101170000F91FF90EF90BF90AF909F908F907F90D6
:101180006F905F904F9008950F931F93CF93DF93CD
:10119000FC010FB6F8940F920115110549F081A1D9
:1011A00092A1A3A1B4A1E80188839983AA83BB83F8
:1011B00035A182E085A3223089F058F4213001F571
:1011C00081A192A1A3A1B4A1482B592B6A2B7B2BFF
:1011D00013C0233089F0243069F012C081A192A19C
:1011E000A3A1B4A10196A11DB11D81A392A3A3A3A4
:1011F000B4A306C0323049F141A352A363A374A340
:10120000313009F5EF018F010E5F1F4FC8010E94B9
:10121000640F8E8990914E01981710F480934E01BF
:1012200029E0829FC0011124B8018C579E4F0E9473
:101230000B0FE0914201F09143019E898689891745
:1012400010F40E943C1281E001C080E00F900FBEBC
:10125000DF91CF911F910F910895EF92FF920F931D
:101260001F93CF93DF93FC010115110549F081A174
:1012700092A1A3A1B4A1E80188839983AA83BB8327
:1012800035A182E085A3223089F058F4213001F5A0
:1012900081A192A1A3A1B4A1482B592B6A2B7B2B2E
:1012A00013C0233089F0243069F012C081A192A1CB
:1012B000A3A1B4A10196A11DB11D81A392A3A3A3D3
:1012C000B4A306C03230D9F141A352A363A374A3DF
:1012D000313011F081E034C0EF018091440181117F
:1012E00015C08F010E5F1F4FC8010E94640F8E89C9
:1012F00090914E01981710F480934E01E9E08E9F73
:10130000C0011124B8018C579E4F05C0BF01645F16
:101310007F4F85E691E00E940B0FE0914201F09132
:1013200043019E8986898917A8F6E114F10419F012
:1013300081E0E701888381E080934B0101C080E078
:10134000DF91CF911F910F91FF90EF900895EF9251
:10135000FF920F931F93CF93DF93FC0125A182E0AF
:1013600085A381A192A1A3A1B4A10196A11DB11D44
:1013700081A392A3A3A3B4A32130A1F58B01EF0114
:1013800080914401811116C07F0122E0E20EF11C20
:10139000C7010E94640F8E8990914E01981710F436
:1013A00080934E01E9E08E9FC0011124B7018C5754
:1013B0009E4F05C0BF01645F7F4F85E691E00E94AC
:1013C0000B0FE0914201F09143019E8986898917B4
:1013D00048F40115110519F081E0F801808381E0DE
:1013E00080934B01DF91CF911F910F91FF90EF9070
:1013F0000895009721F480914201909143010FB626
:10140000F8940F92FC0125A1223019F415A281E075
:1014100001C080E00F900FBE08950FB6F8940F92B0
:10142000FC01928D0F900FBE81E0911180E0089534
:101430000F931F93CF93DF93EC01042F1A8D4C8DE4
:101440004423B1F150E0011115C08A819B810E94B3
:1014500086132C8D8A819B81820F911D9B838A83A9
:101460002C813D818217930718F1888199819B8394
:101470008A831EC08E819F810E9486138C8D90E08E
:101480009195819591092E813F81280F391F3F83C6
:101490002E83488159812417350730F42C813D81F2
:1014A000820F931F9F838E83023011F4111111500C
:1014B0001F5F1A8F80E0DF91CF911F910F910895E8
:1014C000FC01CB01448D4423A1F050E026813781FB
:1014D000240F351F378326836481758126173707CC
:1014E00020F02081318137832683668177810C94B7
:1014F00086130895EF92FF921F93CF93DF93EC0131
:101500000FB6F8940F921E8D7C0181E1E80EF11C5C
:1015100011165CF48989882341F0C7010E940B07EA
:1015200081110E94CB071150F3CF8FEF8E8F0F9058
:101530000FBE0FB6F8940F921D8D7E0188E0E80E65
:10154000F11C11165CF48885882341F0C7010E94C4
:101550000B0781110E94CB071150F3CF8FEF8D8FB6
:101560000F900FBEDF91CF911F91FF90EF900895E4
:10157000CF93DF93EC010FB6F8940F924881598115
:101580008B8D7C8D9A01879F200D311D11243D8309
:101590002C831A8E5B834A8390E00197789F900199
:1015A000799F300D1124CA01820F931F9F838E8370
:1015B0008FEF8D8F8E8F61110CC08885882389F005
:1015C000CE0108960E940B07882359F00E943C1216
:1015D00008C0CE0108960E94F90ECE0141960E94E5
:1015E000F90E0F900FBE81E0DF91CF9108950F9318
:1015F0001F93CF93DF93082F162F662321F0869F2A
:10160000C001112402C080E090E04F960E944E116C
:10161000EC01009771F0111103C09983888303C016
:101620004F96998388830B8F1C8F61E0CE010E94B7
:10163000B80ACE01DF91CF911F910F910895AF921B
:10164000BF92CF92DF92FF920F931F93CF93DF93BE
:1016500000D000D01F92CDB7DEB78C016B015D8347
:101660004C83F22E80E0580198E0A90EB11C0FB611
:10167000F8940F92F801228D938D291718F0F2E05B
:10168000FF1214C04F2DB601C8010E94180AF801BC
:101690009189992321F0C80141960E940B0781117D
:1016A0000E943C120F900FBE81E050C02C813D8102
:1016B000232B19F40F900FBE48C0811104C0CE0136
:1016C00001960E948D070F900FBE0E94C1040FB6B5
:1016D000F8940F92F801858D8F3F09F4158EF8016B
:1016E000868D8F3F09F4168E0F900FBEBE016C5F82
:1016F0007F4FCE0101960E949807811121C00FB63D
:10170000F8940F92F801928D0F900FBE838D98136D
:1017100011C06C817D81C5010E94E206C8010E9452
:101720007A0A0E948D05882311F081E0A0CF0E94E3
:101730003C12FBCFC8010E947A0A0E948D05F5CFAA
:10174000C8010E947A0A0E948D0580E00F900F90D8
:101750000F900F900F90DF91CF911F910F91FF90FD
:10176000DF90CF90BF90AF900895EF92FF921F93BC
:10177000CF93DF93EC019A8D8B8D981710F0223068
:10178000E1F47A011E8D422FCE010E94180A1F3FFC
:1017900081F48989882379F0CE0141960E940B0754
:1017A000882349F0E114F10431F081E0F7018083EE
:1017B00005C01F5F1E8F81E001C080E0DF91CF91E7
:1017C0001F91FF90EF900895CF93DF93FC01928DCE
:1017D000838D9817C0F4868D9F5F928F8F3F79F429
:1017E0008189882371F0EB01CF0141960E940B079C
:1017F000882339F0209729F081E0888305C08F5F26
:10180000868F81E001C080E0DF91CF910895AF9293
:10181000BF92CF92DF92FF920F931F93CF93DF93EC
:1018200000D000D01F92CDB7DEB78C016B015D8375
:101830004C8380E0580191E1A90EB11C0FB6F894D9
:101840000F92F801F28CFF20A9F0B601C8010E94A6
:10185000600AFA94F801F28E8085882339F0C80175
:1018600008960E940B0781110E943C120F900FBE38
:1018700081E050C02C813D81232B19F40F900FBEC5
:1018800048C0811104C0CE0101960E948D070F90BF
:101890000FBE0E94C1040FB6F8940F92F801858D17
:1018A0008F3F09F4158EF801868D8F3F09F4168E4F
:1018B0000F900FBEBE016C5F7F4FCE0101960E945C
:1018C000980781111CC0C8010E940D0A882389F065
:1018D0006C817D81C5010E94E206C8010E947A0ADE
:1018E0000E948D05882311F081E0A8CF0E943C1250
:1018F000FBCFC8010E947A0A0E948D05F5CFC8016E
:101900000E947A0A0E948D05C8010E940D0A882350
:1019100059F380E00F900F900F900F900F90DF9190
:10192000CF911F910F91FF90DF90CF90BF90AF901C
:101930000895EF92FF920F931F93CF93DF9300D000
:1019400000D01F92CDB7DEB78C017D836C8390E011
:10195000780181E1E80EF11C0FB6F8940F92F801BE
:10196000828D882381F08150828F8085882339F091
:10197000C80108960E940B0781110E943C120F902B
:101980000FBE81E050C02C813D81232B19F40F90B4
:101990000FBE48C0911104C0CE0101960E948D0770
:1019A0000F900FBE0E94C1040FB6F8940F92F80179
:1019B000858D8F3F09F4158EF801868D8F3F09F4D0
:1019C000168E0F900FBEBE016C5F7F4FCE01019649
:1019D0000E94980781111CC0C8010E940D0A88232B
:1019E00089F06C817D81C7010E94E206C8010E94D6
:1019F0007A0A0E948D05882311F091E0ADCF0E94F4
:101A00003C12FBCFC8010E947A0A0E948D05F5CFD7
:101A1000C8010E947A0A0E948D05C8010E940D0A21
:101A2000882359F380E00F900F900F900F900F9044
:101A3000DF91CF911F910F91FF90EF900895CF927A
:101A4000DF92EF92FF920F931F93CF93DF9300D01B
:101A500000D01F92CDB7DEB78C017B015D834C8334
:101A600080E0680191E1C90ED11C0FB6F8940F9285
:101A7000F801928D9923B9F0C680D780B701C801CB
:101A80000E94600AF801D782C6828189882339F0D2
:101A9000C80141960E940B0781110E943C120F90D1
:101AA0000FBE81E050C02C813D81232B19F40F9093
:101AB0000FBE48C0811104C0CE0101960E948D075F
:101AC0000F900FBE0E94C1040FB6F8940F92F80158
:101AD000858D8F3F09F4158EF801868D8F3F09F4AF
:101AE000168E0F900FBEBE016C5F7F4FCE01019628
:101AF0000E94980781111CC0C8010E940D0A88230A
:101B000089F06C817D81C6010E94E206C8010E94B5
:101B10007A0A0E948D05882311F081E0A6CF0E94E9
:101B20003C12FBCFC8010E947A0A0E948D05F5CFB6
:101B3000C8010E947A0A0E948D05C8010E940D0A00
:101B4000882359F380E00F900F900F900F900F9023
:101B5000DF91CF911F910F91FF90EF90DF90CF9089
:101B60000895EF92FF920F931F93CF93DF93FC01A1
:101B7000028D0023E9F07A01EC01158D0E94600AC4
:101B800001500A8F1F3F81F48885882379F0CE01A8
:101B900008960E940B07882349F0E114F10431F004
:101BA00081E0F701808305C01F5F1D8F81E001C0C8
:101BB00080E0DF91CF911F910F91FF90EF900895FA
:101BC0000F931F93CF93DF93FC01228D222349F0C3
:101BD000EC01068117810E94600A1F830E8381E059
:101BE00001C080E0DF91CF911F910F9108950FB652
:101BF000F8940F92FC01828D0F900FBE08950FB6DE
:101C0000F8940F92FC01228D0F900FBE838D821BE2
:101C10000895FC01828D08950C948011FC01928D31
:101C200081E0911180E00895FC01928D81E0238D87
:101C3000291380E00895CF93DF93EC01F8940FB659
:101C4000F8940F928A8D9B8D0F900FBE89130FC051
:101C50004115510549F0BE01685F7F4FCA010E94DE
:101C6000FA0F78948CEF1BC0789480E018C07894B9
:101C7000F8948A8D891788F440E0CE010E94180AF2
:101C80008989811102C081E009C0CE0141960E947C
:101C900029118823C1F38BEF01C080E07894DF9194
:101CA000CF910895CF93DF93EC01FB01F8948A8DD7
:101CB00081110FC04115510549F0BE016F5E7F4F84
:101CC000CA010E94FA0F78948CEF30C0789480E0BB
:101CD0002DC07894F8948A8D882331F14C8D50E092
:101CE0002E813F81240F351F3F832E838C819D8160
:101CF0002817390720F0888199819F838E839A8DD8
:101D000091509A8F6E817F81CF010E9486138885C2
:101D1000811102C081E009C0CE0108960E942911FC
:101D20008823C1F38BEF01C080E07894DF91CF91DD
:101D300008950F931F93CF938C01C42FFC01928DB4
:101D4000838D981710F04C2F12C040E0C8010E94FC
:101D5000180AC111F8CFF8018189882339F0C80128
:101D600041960E94291141E0811101C040E0842F79
:101D7000CF911F910F9108950F931F93CF93DF93EE
:101D8000FC01828D882379F1248D30E0A681B78112
:101D9000A20FB31FB783A68384819581A817B907C3
:101DA00020F080819181978386838A01CB01EF01A6
:101DB000428D4150428F66817781A9010E9486132E
:101DC000F8018081882311F081E00EC08885882386
:101DD000D9F3CE0108960E9429118823A9F381E046
:101DE000F801808301C080E0DF91CF911F910F91B6
:101DF0000895FC010396928381832FEF3FEF348394
:101E00002383968385839087878310820895FC01BE
:101E1000118610860895CF93DF939C01FB01DC01AE
:101E20001196CD91DC911297D383C2838C819D81D1
:101E3000958384838C819D81DC0113967C936E93C2
:101E400012977D836C8331872087F90180818F5FB2
:101E50008083DF91CF9108950F931F93CF93DF93EA
:101E60008C01FB01808191818F3F2FEF920721F43C
:101E7000E801AF81B8850EC0D801139612962D9156
:101E80003C911397E901488159818417950710F017
:101E9000D901F4CF12968D919C91139793838283ED
:101EA000EC01FD83EC83B583A4831396FC93EE933E
:101EB000129711870087F80180818F5F8083DF91FF
:101EC000CF911F910F910895CF93DF93FC01A085CF
:101ED000B1858281938124813581EC013D832C83FE
:101EE000C481D5819B838A8311968D919C91129791
:101EF000E817F90721F41296DC93CE931197118617
:101F000010868C9181508C938C91DF91CF910895A4
:101F1000CF92DF92EF92FF921F93CF93DF936C01EA
:101F2000162FF42E8AE190E00E944E11EC01892BCD
:101F300009F457C08091A8019091A901892B21F53E
:101F4000D093A901C093A80180ED91E00E94F90E01
:101F500089ED91E00E94F90E87EC91E00E94F90E64
:101F60008EEB91E00E94F90E81EB91E00E94F90E58
:101F700087EC91E09093BD018093BC018EEB91E0E2
:101F80009093BB018093BA01111111E0198E188E44
:101F90001E8BFF8AFE01C192D1927F01CF010E9468
:101FA000070FCE010C960E94070FD987C887DB8BDD
:101FB000CA8B82E090E0811B91099D878C878E8976
:101FC0009091B001981710F48093B001F9E08F9FC1
:101FD000C0011124B70180539E4F0E940B0F81E076
:101FE00001C08FEFDF91CF911F91FF90EF90DF90B5
:101FF000CF9008950F931F93CF93DF938B01C091E0
:10200000AE01D091AF01C80FD91F8091A801909166
:10201000A90102960E94640FE091A801F091A90124
:10202000D383C2838091AE019091AF01BF016E5FF7
:102030007F4FC817D90728F48091BA019091BB014E
:1020400004C08091BC019091BD010E942C0F01152C
:10205000110569F06091A8017091A901645F7F4F3B
:10206000C801DF91CF911F910F910C942C0FDF913C
:10207000CF911F910F910895FF920F931F93CF93CC
:10208000DF9399E0F92E8091B101882311F1F89442
:10209000E091B601F091B701C681D781CE010C96CF
:1020A0000E94640F78948E010E5F1F4FC8010E943A
:1020B000640F8E899091B001981710F48093B0014D
:1020C000F89EC0011124B80180539E4F0E940B0F4F
:1020D000DACF0E94C7042091AC013091AD01821B80
:1020E000930B9093AB018093AA0189E0F82E209185
:1020F000AA013091AB018091AE019091AF01211501
:10210000310509F454C001969093AF018093AE015C
:10211000215031093093AB012093AA01892B09F09A
:102120003EC08091BC019091BD012091BA013091D7
:10213000BB013093BD012093BC019093BB01809300
:10214000BA012DC00580F681E02DC681D7812A8194
:102150003B818091AE019091AF018217930738F2D5
:10216000F8948E010E5F1F4FC8010E94640F8C8986
:102170009D89892B21F0CE010C960E94640F7894E2
:102180008E899091B001981710F48093B001F89E59
:10219000C0011124B80180539E4F0E940B0FE091A3
:1021A000BC01F091BD0180818111CCCFA0CF909373
:1021B000AD018093AC018091B00169E0482F50E0FF
:1021C000649F9001659F300D1124F901E053FE4F8B
:1021D000908191110CC0811108C01092B001DF9163
:1021E000CF911F910F91FF9008958150E7CF809379
:1021F000B001A181B28112960D90BC91A02DB28345
:10220000A1832D523E4FA217B30731F412968D9140
:102210009C9113979283818389E0849FF001859F2D
:10222000F00D1124E053FE4F0180F281E02D8681F4
:1022300097819093A9018093A801DC01ED91FC9115
:10224000119757966C91DF91CF911F910F91FF904D
:1022500009940F931F93CF93DF93DC011596ED91B3
:10226000FC911697C681D7818E01045F1F4FC8016C
:102270000E94640FB80181EB91E00E940B0FE09186
:10228000A801F091A90181E02E899689291708F407
:1022900080E0DF91CF911F910F910895CF93DF934D
:1022A000EC010E94C1048091E2019091E301892B2D
:1022B00031F487EE91E09093E3018093E201209165
:1022C000E4013091E501C9018C0F9D1F8B3D45E074
:1022D000940770F42817390758F4C091E201D0919F
:1022E000E301C20FD31F9093E5018093E40102C084
:1022F000C0E0D0E00E948D05CE01DF91CF9108951E
:1023000008951092E5011092E40108952091E401EE
:102310003091E5018BED95E0821B930B089531E13F
:10232000FC013083319722E220833197A3E3A0831D
:10233000319760833197708331971082319760E8CD
:10234000608331971082319762E06083319763E058
:102350006083319764E06083319765E060833197F3
:1023600066E06083319767E06083319768E060835F
:10237000319769E06083319760E160833197308302
:10238000319732E13083319733E13083319734E153
:102390003083319735E13083319736E1308331979F
:1023A00037E13083319738E13083319739E1308339
:1023B000319730E23083319731E230833197208397
:1023C000319723E2208331974083319750833197AF
:1023D00026E22083319727E22083319728E2208369
:1023E000319729E22083319720E32083319721E33D
:1023F00020838697089589EF90E0909389008093D9
:102400008800E0E8F0E080818C7F80838BE080931F
:102410008100EFE6F0E0808182608083A09142013C
:10242000B0914301CD91CDBFDD91DEBFFF91EF9122
:10243000DF91CF91BF91AF919F918F917F916F91DC
:102440005F914F913F912F911F910F91FF90EF90CE
:10245000DF90CF90BF90AF909F908F907F906F90C4
:102460005F904F903F902F901F900F900FBE0F9056
:10247000089581E0089508950F920FB6F8940F9291
:102480001F9211242F923F924F925F926F927F92F0
:102490008F929F92AF92BF92CF92DF92EF92FF9274
:1024A0000F931F932F933F934F935F936F937F935C
:1024B0008F939F93AF93BF93CF93DF93EF93FF934C
:1024C000A0914201B09143010DB60D920EB60D924E
:1024D0000E944906A0914201B0914301CD91CDBF28
:1024E000DD91DEBFFF91EF91DF91CF91BF91AF9171
:1024F0009F918F917F916F915F914F913F912F911C
:102500001F910F91FF90EF90DF90CF90BF90AF9011
:102510009F908F907F906F905F904F903F902F9003
:102520001F900F900FBE0F9008950F920FB6F89462
:102530000F921F9211242F923F924F925F926F92AF
:102540007F928F929F92AF92BF92CF92DF92EF9243
:10255000FF920F931F932F933F934F935F936F932C
:102560007F938F939F93AF93BF93CF93DF93EF931B
:10257000FF93A0914201B09143010DB60D920EB6AA
:102580000D920E94E10481110E944906A09142012E
:10259000B0914301CD91CDBFDD91DEBFFF91EF91B1
:1025A000DF91CF91BF91AF919F918F917F916F916B
:1025B0005F914F913F912F911F910F91FF90EF905D
:1025C000DF90CF90BF90AF909F908F907F906F9053
:1025D0005F904F903F902F901F900F900FBE0F90E5
:1025E00008950E9495121895EF92FF920F93CF9342
:1025F000DF9300D000D000D0CDB7DEB70E94FD0041
:10260000E0E0F1E080E291E09187808781E591E070
:102610009387828783E0838315861486ACECB7E0CA
:102620001596FC93EE9314971396FC93EE931297E2
:10263000ED93FC930E945300789443E060E081E0C6
:102640000E94F70A9093C3078093C20743E060E0BB
:1026500081E00E94F70A9093C5078093C40743E086
:1026600060E081E00E94F70A9093C7078093C60755
:1026700020E040E050E060E070E08091C20790917F
:10268000C3070E941F0B20E040E050E060E070E0D4
:102690008091C6079091C7070E941F0BCE01039639
:1026A0007C0101E020E030E048EC50E06EE071E0B9
:1026B00081EC90E00E94AD02CE0105967C0121E004
:1026C00030E048EC50E069E171E081EC90E00E947C
:1026D000AD02CE0101967C012EE030E048EC50E0E6
:1026E00064E271E081EC90E00E94AD020E949204ED
:1026F00080E090E026960FB6F894DEBF0FBECDBF07
:10270000DF91CF910F91FF90EF900895FB01DC01D5
:1027100002C001900D9241505040D8F70895A0E0BA
:10272000B0E0E5E9F3E10C944616AE014B5F5F4F74
:10273000FA0161917191AF018091CE079091CF071D
:102740000E94A513E2E00C946216ABE0B0E0EBEA65
:10275000F3E10C9436166C017B018A01FC011782AF
:102760001682838181FFCCC1CE0101963C01F60126
:102770009381F70193FD859193FF81917F018823D8
:1027800009F4BAC1853239F493FD859193FF8191A3
:102790007F01853229F4B60190E00E949C15E7CFB5
:1027A000912C212C312CFFE1F315D8F08B3279F0EC
:1027B00038F4803279F08332A1F4232D20611DC0DA
:1027C0008D3261F0803369F4232D216016C0832D92
:1027D0008260382EE32DE4603E2E2AC0F32DF8608F
:1027E0001DC037FC2DC020ED280F2A3040F08E325E
:1027F000B9F436FC81C1232D2064322E19C036FE77
:1028000006C08AE0989E200D1124922E11C0EAE0A5
:102810002E9E200D1124222EF32DF0623F2E08C093
:102820008C3621F4832D8068382E02C0883641F41E
:10283000F70193FD859193FF81917F018111B3CFC2
:10284000982F9F7D9554933028F40C5F1F4F9FE382
:1028500099830DC0833631F0833771F0833509F0E9
:1028600059C021C0F801808189830E5F1F4F8824E1
:102870008394912C530113C02801F2E04F0E511C98
:10288000F801A080B18036FE03C0692D70E002C05F
:102890006FEF7FEFC5010E9491154C018201F32D6E
:1028A000FF773F2E16C0280122E0420E511CF8018E
:1028B000A080B18036FE03C0692D70E002C06FEFCA
:1028C0007FEFC5010E9486154C01F32DF0683F2E65
:1028D000820133FC1BC0822D90E088169906B0F46B
:1028E000B60180E290E00E949C152A94F4CFF50195
:1028F00037FC859137FE81915F01B60190E00E941F
:102900009C1521102A9421E0821A910881149104C7
:1029100071F7E8C0843611F0893641F5F80137FEC9
:1029200007C060817181828193810C5F1F4F08C055
:1029300060817181072E000C880B990B0E5F1F4F71
:10294000F32DFF763F2E97FF09C0909580957095E7
:1029500061957F4F8F4F9F4FF0683F2E2AE030E008
:10296000A3010E94D815882E861845C0853731F4FA
:10297000232D2F7EB22E2AE030E025C0932D997FA3
:10298000B92E8F36C1F018F4883579F0B5C080378C
:1029900019F0883721F0B0C0E92FE061BE2EB4FEF7
:1029A0000DC0FB2DF460BF2E09C034FE0AC0292FD4
:1029B0002660B22E06C028E030E005C020E130E0FD
:1029C00002C020E132E0F801B7FE07C060817181EA
:1029D000828193810C5F1F4F06C06081718180E00E
:1029E00090E00E5F1F4FA3010E94D815882E861815
:1029F000FB2DFF773F2E36FE0DC0232D2E7FA22EFE
:102A0000891458F434FE0BC032FC09C0832D8E7E2D
:102A1000A82E05C0B82CA32C03C0B82C01C0B92C1B
:102A2000A4FE0FC0FE01E80DF11D8081803321F46A
:102A30009A2D997EA92E09C0A2FE06C0B394B39424
:102A400004C08A2D867809F0B394A3FC11C0A0FEBF
:102A500006C0B21488F4280C922C9B180EC0B21435
:102A600060F4B60180E290E00E949C15B394F7CF29
:102A7000B21418F42B1802C0982C212CA4FE10C0FC
:102A8000B60180E390E00E949C15A2FE17C0A1FC55
:102A900003C088E790E002C088E590E0B6010CC072
:102AA0008A2D867859F0A1FE02C08BE201C080E237
:102AB000A7FC8DE2B60190E00E949C15891438F4C1
:102AC000B60180E390E00E949C159A94F7CF8A9417
:102AD000F301E80DF11D8081B60190E00E949C1584
:102AE0008110F5CF222009F442CEB60180E290E0B9
:102AF0000E949C152A94F6CFF6018681978102C028
:102B00008FEF9FEF2B96E2E10C945216FC0105909B
:102B1000615070400110D8F7809590958E0F9F1FDF
:102B20000895FC016150704001900110D8F7809524
:102B300090958E0F9F1F08950F931F93CF93DF9350
:102B4000FB01238121FD03C08FEF9FEF2CC022FFEB
:102B500016C046815781248135814217530744F4BA
:102B6000A081B1819D012F5F3F4F318320838C93E2
:102B7000268137812F5F3F4F3783268314C08B0117
:102B8000EC01FB010084F185E02D0995892BE1F62C
:102B9000D80116968D919C911797019617969C9344
:102BA0008E931697CE01DF91CF911F910F910895CB
:102BB000FA01AA27283051F1203181F1E8946F936E
:102BC0006E7F6E5F7F4F8F4F9F4FAF4FB1E03ED014
:102BD000B4E03CD0670F781F891F9A1FA11D680FB2
:102BE000791F8A1F911DA11D6A0F711D811D911DE5
:102BF000A11D20D009F468943F912AE0269F11245A
:102C00003019305D3193DEF6CF010895462F4770BD
:102C1000405D4193B3E00FD0C9F7F6CF462F4F7018
:102C2000405D4A3318F0495D31FD4052419302D076
:102C3000A9F7EACFB4E0A69597958795779567951C
:102C4000BA95C9F700976105710508959B01AC011C
:102C50000A2E06945795479537952795BA95C9F743
:102C6000620F731F841F951FA01D08952F923F921E
:102C70004F925F926F927F928F929F92AF92BF928C
:102C8000CF92DF92EF92FF920F931F93CF93DF9338
:102C9000CDB7DEB7CA1BDB0B0FB6F894DEBF0FBE95
:102CA000CDBF09942A88398848885F846E847D84E2
:102CB0008C849B84AA84B984C884DF80EE80FD80E4
:102CC0000C811B81AA81B981CE0FD11D0FB6F8945A
:0E2CD000DEBF0FBECDBFED010895F894FFCF1B
:102CDE0000000003000000002001510100004144EB
:102CEE00435F726561645F31004144435F726561A9
:102CFE00645F32004144435F726561645F3300413B
:102D0E0044435F25633A2025750D0A0049444C451E
:022D1E000000B3
:00000001FF
