S00C00007A6164342E73726563A5
S11300000C9434000C9451000C9451000C94510045
S11300100C9451000C9451000C9451000C94510018
S11300200C9451000C9451000C9451000C94510008
S11300300C9451000C9451000C9451000C945100F8
S11300400C9451000C947A000C9451000C945100BF
S11300500C9451000C9451000C9451000C945100D8
S11300600C9451000C94510011241FBECFEFD8E022
S1130070DEBFCDBF11E0A0E0B1E0E8EEF9E002C0E0
S113008005900D92AC30B107D9F721E0ACE0B1E0B6
S113009001C01D92A032B207E1F70E9471010C94D5
S11300A0F2040C9400009091C00095FFFCCF809363
S11300B0C60080E090E008958091C00087FFFCCFE7
S11300C08091C60090E0089587E690E09093C50083
S11300D08093C4001092C00088E18093C10086E040
S11300E08093C20008958CB5806C8CBD8DB58068FA
S11300F08DBD08951F920F920FB60F9211240F9386
S11301001F932F933F934F935F936F937F938F939B
S11301109F93AF93BF93CF93DF93EF93FF930EB56A
S113012080E091E09F938F930E94500210E00F9023
S11301300F90C0E0D0E008C081E390E00E94140278
S11301402196C830D105A9F0C8010C2E02C095959E
S113015087950A94E2F760911C0170911D0180FD5E
S1130160EBCF80E390E00E9414022196C830D105C1
S113017059F788E091E09F938F930E9450020F906B
S11301800F90FF91EF91DF91CF91BF91AF919F912C
S11301908F917F916F915F914F913F912F911F911B
S11301A00F910F900FBE0F901F9018955C9880FDD3
S11301B02EC05D9886955F9A5F9880FD2EC05D98ED
S11301C086955F9A5F9880FD2EC05D9886955F9AAC
S11301D05F9880FD2EC05D9886955F9A5F9880FD3C
S11301E02EC05D9886955F9A5F9880FD2EC05D98BD
S11301F086955F9A5F9880FD2EC05D9886955F9A7C
S11302005F9871F15D9A5F9A5F985C9A08955D9A20
S113021086955F9A5F9880FFD2CF5D9A86955F9AA4
S11302205F9880FFD2CF5D9A86955F9A5F9880FF32
S1130230D2CF5D9A86955F9A5F9880FFD2CF5D9A00
S113024086955F9A5F9880FFD2CF5D9A86955F9A74
S11302505F9880FFD2CF5D9A86955F9A5F9891F6FA
S11302605D985F9A5F985C9A089580E28093B800E5
S1130270ECEBF0E080818460808308958091BC0081
S113028087FFFCCF089584EA8093BC008091BC0072
S113029087FFFCCF089584E98093BC00089580E92A
S11302A08093BC00089584EC8093BC008091BC00D2
S11302B087FFFCCF8091BB00089584E88093BC0045
S11302C08091BC0087FFFCCF8091BB000895809390
S11302D0BB0084E88093BC008091BC0087FFFCCF06
S11302E0089587E690E09093C5008093C40010922F
S11302F0C00088E18093C10086E08093C2008CE056
S113030091E023E530E030931501209314012CE5AE
S113031030E0309317012093160123E020930F015E
S1130320109219011092180190931F0180931E01DD
S113033090931D0180931C0190931B0180931A01DB
S11303408AB1806B8AB95C9A78948CB5806C8CBDC8
S11303508DB580688DBD80E037C05D9886955F9AC5
S11303605F9880FD3CC05D9886955F9A5F9880FD9C
S11303703CC05D9886955F9A5F9880FD3CC05D980F
S113038086955F9A5F9880FD3CC05D9886955F9ADC
S11303905F9880FD3CC05D9886955F9A5F9880FD6C
S11303A03CC05D985F9A5F988695E1F55D985F9A89
S11303B05F985C9A2FEF33ED80E32150304080400A
S11303C0E1F700C00000892F91E0980F5C9880FF4E
S11303D0C4CF5D9A86955F9A5F9880FFC4CF5D9A7B
S11303E086955F9A5F9880FFC4CF5D9A86955F9AE1
S11303F05F9880FFC4CF5D9A86955F9A5F9880FF6F
S1130400C4CF5D9A86955F9A5F9880FFC4CF5D9A4A
S113041086955F9A5F9880FFC4CF5D9A5F9A5F98D4
S1130420869521F25D9AC3CF0F931F93CF93DF93E9
S1130430FB01238121FD03C08FEF9FEF2CC022FF1E
S113044016C046815781248135814217530744F4ED
S1130450A081B1819D012F5F3F4F318320838C9315
S1130460268137812F5F3F4F3783268314C08B014A
S1130470EC01FB010084F185E02D0995892BE1F65F
S1130480D80116968D919C911797019617969C9377
S11304908E931697CE01DF91CF911F910F910895FE
S11304A0A0E0B0E0E6E5F2E00C94CB04AE014B5FD3
S11304B05F4FFA0161917191AF0180911C0190919C
S11304C01D010E946602E2E00C94E704ABE0B0E098
S11304D0ECE6F2E00C94BB046C017B018A01FC01A4
S11304E017821682838181FFCCC1CE0101963C0123
S11304F0F6019381F70193FD859193FF81917F012B
S1130500882309F4BAC1853239F493FD859193FFA8
S113051081917F01853229F4B60190E00E94140292
S1130520E7CF912C212C312CFFE1F315D8F08B323D
S113053079F038F4803279F08332A1F4232D2061EC
S11305401DC08D3261F0803369F4232D216016C003
S1130550832D8260382EE32DE4603E2E2AC0F32DD5
S1130560F8601DC037FC2DC020ED280F2A3040F064
S11305708E32B9F436FC81C1232D2064322E19C089
S113058036FE06C08AE0989E200D1124922E11C0DA
S1130590EAE02E9E200D1124222EF32DF0623F2E30
S11305A008C08C3621F4832D8068382E02C088362A
S11305B041F4F70193FD859193FF81917F018111AE
S11305C0B3CF982F9F7D9554933028F40C5F1F4F21
S11305D09FE399830DC0833631F0833771F08335FF
S11305E009F059C021C0F801808189830E5F1F4F33
S11305F088248394912C530113C02801F2E04F0EF8
S1130600511CF801A080B18036FE03C0692D70E052
S113061002C06FEF7FEFC5010E9452044C018201BA
S1130620F32DFF773F2E16C0280122E0420E511C05
S1130630F801A080B18036FE03C0692D70E002C0CD
S11306406FEF7FEFC5010E9447044C01F32DF06862
S11306503F2E820133FC1BC0822D90E08816990640
S1130660B0F4B60180E290E00E9414022A94F4CF20
S1130670F50137FC859137FE81915F01B60190E069
S11306800E94140221102A9421E0821A91088114F4
S1130690910471F7E8C0843611F0893641F5F80108
S11306A037FE07C060817181828193810C5F1F4F87
S11306B008C060817181072E000C880B990B0E5FB6
S11306C01F4FF32DFF763F2E97FF09C0909580951D
S11306D0709561957F4F8F4F9F4FF0683F2E2AE0B2
S11306E030E0A3010E945D04882E861845C085373A
S11306F031F4232D2F7EB22E2AE030E025C0932D35
S1130700997FB92E8F36C1F018F4883579F0B5C0C9
S1130710803719F0883721F0B0C0E92FE061BE2E90
S1130720B4FE0DC0FB2DF460BF2E09C034FE0AC018
S1130730292F2660B22E06C028E030E005C020E153
S113074030E002C020E132E0F801B7FE07C060816A
S11307507181828193810C5F1F4F06C0608171811A
S113076080E090E00E5F1F4FA3010E945D04882E7D
S11307708618FB2DFF773F2E36FE0DC0232D2E7FCE
S1130780A22E891458F434FE0BC032FC09C0832D08
S11307908E7EA82E05C0B82CA32C03C0B82C01C093
S11307A0B92CA4FE0FC0FE01E80DF11D8081803339
S11307B021F49A2D997EA92E09C0A2FE06C0B394F5
S11307C0B39404C08A2D867809F0B394A3FC11C0B5
S11307D0A0FE06C0B21488F4280C922C9B180EC0FC
S11307E0B21460F4B60180E290E00E941402B39463
S11307F0F7CFB21418F42B1802C0982C212CA4FEA5
S113080010C0B60180E390E00E941402A2FE17C05B
S1130810A1FC03C088E790E002C088E590E0B6013F
S11308200CC08A2D867859F0A1FE02C08BE201C06B
S113083080E2A7FC8DE2B60190E00E9414028914C4
S113084038F4B60180E390E00E9414029A94F7CF42
S11308508A94F301E80DF11D8081B60190E00E94B5
S113086014028110F5CF222009F442CEB60180E2B1
S113087090E00E9414022A94F6CFF60186819781B3
S113088002C08FEF9FEF2B96E2E10C94D704FC019A
S11308900590615070400110D8F7809590958E0FA7
S11308A09F1F0895FC016150704001900110D8F71A
S11308B0809590958E0F9F1F0895FA01AA272830DE
S11308C051F1203181F1E8946F936E7F6E5F7F4F19
S11308D08F4F9F4FAF4FB1E03ED0B4E03CD0670F95
S11308E0781F891F9A1FA11D680F791F8A1F911DE8
S11308F0A11D6A0F711D811D911DA11D20D009F438
S113090068943F912AE0269F11243019305D319379
S1130910DEF6CF010895462F4770405D4193B3E062
S11309200FD0C9F7F6CF462F4F70405D4A3318F009
S1130930495D31FD4052419302D0A9F7EACFB4E0BA
S1130940A6959795879577956795BA95C9F7009772
S11309506105710508959B01AC010A2E0694579513
S1130960479537952795BA95C9F7620F731F841F6A
S1130970951FA01D08952F923F924F925F926F9200
S11309807F928F929F92AF92BF92CF92DF92EF921B
S1130990FF920F931F93CF93DF93CDB7DEB7CA1B9C
S11309A0DB0B0FB6F894DEBF0FBECDBF09942A88C7
S11309B0398848885F846E847D848C849B84AA846F
S11309C0B984C884DF80EE80FD800C811B81AA81FC
S11309D0B981CE0FD11D0FB6F894DEBF0FBECDBFC7
S10B09E0ED010895F894FFCF26
S10F09E852656365697665640A0D0000C1
S9030000FC
